{
  "contractName": "Election",
  "abi": [
    {
      "constant": true,
      "inputs": [],
      "name": "candidatesCount",
      "outputs": [
        {
          "name": "",
          "type": "uint256"
        }
      ],
      "payable": false,
      "stateMutability": "view",
      "type": "function"
    },
    {
      "constant": true,
      "inputs": [
        {
          "name": "",
          "type": "uint256"
        }
      ],
      "name": "candidates",
      "outputs": [
        {
          "name": "id",
          "type": "uint256"
        },
        {
          "name": "name",
          "type": "string"
        },
        {
          "name": "voteCount",
          "type": "uint256"
        }
      ],
      "payable": false,
      "stateMutability": "view",
      "type": "function"
    },
    {
      "constant": true,
      "inputs": [],
      "name": "workflowStatus",
      "outputs": [
        {
          "name": "",
          "type": "uint8"
        }
      ],
      "payable": false,
      "stateMutability": "view",
      "type": "function"
    },
    {
      "constant": true,
      "inputs": [
        {
          "name": "",
          "type": "address"
        }
      ],
      "name": "voters",
      "outputs": [
        {
          "name": "isRegistered",
          "type": "bool"
        },
        {
          "name": "hasVoted",
          "type": "bool"
        },
        {
          "name": "votedCandidateId",
          "type": "uint256"
        }
      ],
      "payable": false,
      "stateMutability": "view",
      "type": "function"
    },
    {
      "constant": true,
      "inputs": [],
      "name": "administrator",
      "outputs": [
        {
          "name": "",
          "type": "address"
        }
      ],
      "payable": false,
      "stateMutability": "view",
      "type": "function"
    },
    {
      "inputs": [],
      "payable": false,
      "stateMutability": "nonpayable",
      "type": "constructor"
    },
    {
      "anonymous": false,
      "inputs": [
        {
          "indexed": false,
          "name": "voterAddress",
          "type": "address"
        }
      ],
      "name": "VoterRegisteredEvent",
      "type": "event"
    },
    {
      "anonymous": false,
      "inputs": [],
      "name": "CandidateRegistrationStartedEvent",
      "type": "event"
    },
    {
      "anonymous": false,
      "inputs": [],
      "name": "CandidateRegistrationEndedEvent",
      "type": "event"
    },
    {
      "anonymous": false,
      "inputs": [
        {
          "indexed": false,
          "name": "candidateId",
          "type": "uint256"
        }
      ],
      "name": "CandidateRegisteredEvent",
      "type": "event"
    },
    {
      "anonymous": false,
      "inputs": [],
      "name": "VotingSessionStartedEvent",
      "type": "event"
    },
    {
      "anonymous": false,
      "inputs": [],
      "name": "VotingSessionEndedEvent",
      "type": "event"
    },
    {
      "anonymous": false,
      "inputs": [
        {
          "indexed": false,
          "name": "voter",
          "type": "address"
        },
        {
          "indexed": false,
          "name": "candidateId",
          "type": "uint256"
        }
      ],
      "name": "VotedEvent",
      "type": "event"
    },
    {
      "anonymous": false,
      "inputs": [],
      "name": "VotesTalliedEvent",
      "type": "event"
    },
    {
      "anonymous": false,
      "inputs": [
        {
          "indexed": false,
          "name": "previousStatus",
          "type": "uint8"
        },
        {
          "indexed": false,
          "name": "newStatus",
          "type": "uint8"
        }
      ],
      "name": "WorkflowStatusChangeEvent",
      "type": "event"
    },
    {
      "constant": false,
      "inputs": [
        {
          "name": "_voterAddress",
          "type": "address"
        }
      ],
      "name": "registerVoter",
      "outputs": [],
      "payable": false,
      "stateMutability": "nonpayable",
      "type": "function"
    },
    {
      "constant": false,
      "inputs": [],
      "name": "startCandidatesRegistration",
      "outputs": [],
      "payable": false,
      "stateMutability": "nonpayable",
      "type": "function"
    },
    {
      "constant": false,
      "inputs": [],
      "name": "endCandidatesRegistration",
      "outputs": [],
      "payable": false,
      "stateMutability": "nonpayable",
      "type": "function"
    },
    {
      "constant": false,
      "inputs": [],
      "name": "startVotingSession",
      "outputs": [],
      "payable": false,
      "stateMutability": "nonpayable",
      "type": "function"
    },
    {
      "constant": false,
      "inputs": [],
      "name": "endVotingSession",
      "outputs": [],
      "payable": false,
      "stateMutability": "nonpayable",
      "type": "function"
    },
    {
      "constant": false,
      "inputs": [
        {
          "name": "candidateName",
          "type": "string"
        }
      ],
      "name": "registerCandidate",
      "outputs": [],
      "payable": false,
      "stateMutability": "nonpayable",
      "type": "function"
    },
    {
      "constant": false,
      "inputs": [
        {
          "name": "candidateId",
          "type": "uint256"
        }
      ],
      "name": "vote",
      "outputs": [],
      "payable": false,
      "stateMutability": "nonpayable",
      "type": "function"
    },
    {
      "constant": false,
      "inputs": [],
      "name": "tallyVotes",
      "outputs": [],
      "payable": false,
      "stateMutability": "nonpayable",
      "type": "function"
    },
    {
      "constant": true,
      "inputs": [],
      "name": "getCandidatesNumber",
      "outputs": [
        {
          "name": "",
          "type": "uint256"
        }
      ],
      "payable": false,
      "stateMutability": "view",
      "type": "function"
    },
    {
      "constant": true,
      "inputs": [
        {
          "name": "index",
          "type": "uint256"
        }
      ],
      "name": "getCandidateName",
      "outputs": [
        {
          "name": "",
          "type": "string"
        }
      ],
      "payable": false,
      "stateMutability": "view",
      "type": "function"
    },
    {
      "constant": true,
      "inputs": [],
      "name": "getWinningCandidateId",
      "outputs": [
        {
          "name": "",
          "type": "uint256"
        }
      ],
      "payable": false,
      "stateMutability": "view",
      "type": "function"
    },
    {
      "constant": true,
      "inputs": [],
      "name": "getWinningCandidateName",
      "outputs": [
        {
          "name": "",
          "type": "string"
        }
      ],
      "payable": false,
      "stateMutability": "view",
      "type": "function"
    },
    {
      "constant": true,
      "inputs": [],
      "name": "getWinningCandidateVoteCounts",
      "outputs": [
        {
          "name": "",
          "type": "uint256"
        }
      ],
      "payable": false,
      "stateMutability": "view",
      "type": "function"
    },
    {
      "constant": true,
      "inputs": [
        {
          "name": "_voterAddress",
          "type": "address"
        }
      ],
      "name": "isRegisteredVoter",
      "outputs": [
        {
          "name": "",
          "type": "bool"
        }
      ],
      "payable": false,
      "stateMutability": "view",
      "type": "function"
    },
    {
      "constant": true,
      "inputs": [
        {
          "name": "_address",
          "type": "address"
        }
      ],
      "name": "isAdministrator",
      "outputs": [
        {
          "name": "",
          "type": "bool"
        }
      ],
      "payable": false,
      "stateMutability": "view",
      "type": "function"
    },
    {
      "constant": true,
      "inputs": [],
      "name": "getWorkflowStatus",
      "outputs": [
        {
          "name": "",
          "type": "uint8"
        }
      ],
      "payable": false,
      "stateMutability": "view",
      "type": "function"
    }
  ],
  "bytecode": "0x608060405234801561001057600080fd5b50336000806101000a81548173ffffffffffffffffffffffffffffffffffffffff021916908373ffffffffffffffffffffffffffffffffffffffff16021790555060008060146101000a81548160ff0219169083600581111561006f57fe5b02179055506123c0806100836000396000f30060806040526004361061011d576000357c0100000000000000000000000000000000000000000000000000000000900463ffffffff1680630121b93f146101225780630a2eb3011461014f5780632d35a8a2146101aa5780633477ee2e146101d5578063378a21781461028957806338db6dd3146102a057806383c842c5146102e35780639c8093a81461030e5780639eb88db61461039e578063a1edffa214610407578063a3ec138d14610440578063a7bfab16146104ad578063b15770f4146104c4578063bd0c3928146104db578063da36cffe14610506578063e13804a714610561578063ee74c67814610607578063f53d0a8e1461061e578063f75d64a614610675578063f8f65127146106ae578063ffceb186146106d9575b600080fd5b34801561012e57600080fd5b5061014d600480360381019080803590602001909291905050506106f0565b005b34801561015b57600080fd5b50610190600480360381019080803573ffffffffffffffffffffffffffffffffffffffff169060200190929190505050610a97565b604051808215151515815260200191505060405180910390f35b3480156101b657600080fd5b506101bf610af0565b6040518082815260200191505060405180910390f35b3480156101e157600080fd5b5061020060048036038101908080359060200190929190505050610af6565b6040518084815260200180602001838152602001828103825284818151815260200191508051906020019080838360005b8381101561024c578082015181840152602081019050610231565b50505050905090810190601f1680156102795780820380516001836020036101000a031916815260200191505b5094505050505060405180910390f35b34801561029557600080fd5b5061029e610bb8565b005b3480156102ac57600080fd5b506102e1600480360381019080803573ffffffffffffffffffffffffffffffffffffffff169060200190929190505050610eb6565b005b3480156102ef57600080fd5b506102f861126a565b6040518082815260200191505060405180910390f35b34801561031a57600080fd5b50610323611336565b6040518080602001828103825283818151815260200191508051906020019080838360005b83811015610363578082015181840152602081019050610348565b50505050905090810190601f1680156103905780820380516001836020036101000a031916815260200191505b509250505060405180910390f35b3480156103aa57600080fd5b50610405600480360381019080803590602001908201803590602001908080601f016020809104026020016040519081016040528093929190818152602001838380828437820191505050505050919291929050505061140a565b005b34801561041357600080fd5b5061041c61166d565b6040518082600581111561042c57fe5b60ff16815260200191505060405180910390f35b34801561044c57600080fd5b50610481600480360381019080803573ffffffffffffffffffffffffffffffffffffffff169060200190929190505050611680565b604051808415151515815260200183151515158152602001828152602001935050505060405180910390f35b3480156104b957600080fd5b506104c26116c4565b005b3480156104d057600080fd5b506104d961192e565b005b3480156104e757600080fd5b506104f0611b98565b6040518082815260200191505060405180910390f35b34801561051257600080fd5b50610547600480360381019080803573ffffffffffffffffffffffffffffffffffffffff169060200190929190505050611ba2565b604051808215151515815260200191505060405180910390f35b34801561056d57600080fd5b5061058c60048036038101908080359060200190929190505050611bfb565b6040518080602001828103825283818151815260200191508051906020019080838360005b838110156105cc5780820151818401526020810190506105b1565b50505050905090810190601f1680156105f95780820380516001836020036101000a031916815260200191505b509250505060405180910390f35b34801561061357600080fd5b5061061c611cb3565b005b34801561062a57600080fd5b50610633611f43565b604051808273ffffffffffffffffffffffffffffffffffffffff1673ffffffffffffffffffffffffffffffffffffffff16815260200191505060405180910390f35b34801561068157600080fd5b5061068a611f68565b6040518082600581111561069a57fe5b60ff16815260200191505060405180910390f35b3480156106ba57600080fd5b506106c3611f7e565b6040518082815260200191505060405180910390f35b3480156106e557600080fd5b506106ee612060565b005b600260003373ffffffffffffffffffffffffffffffffffffffff1673ffffffffffffffffffffffffffffffffffffffff16815260200190815260200160002060000160009054906101000a900460ff1615156107da576040517f08c379a00000000000000000000000000000000000000000000000000000000081526004018080602001828103825260368152602001807f7468652063616c6c6572206f6620746869732066756e6374696f6e206d75737481526020017f2062652061207265676973746572656420766f7465720000000000000000000081525060400191505060405180910390fd5b600360058111156107e757fe5b600060149054906101000a900460ff16600581111561080257fe5b14151561089d576040517f08c379a000000000000000000000000000000000000000000000000000000000815260040180806020018281038252603a8152602001807f746869732066756e6374696f6e2063616e2062652063616c6c6564206f6e6c7981526020017f20647572696e672074686520766f74696e672073657373696f6e00000000000081525060400191505060405180910390fd5b600260003373ffffffffffffffffffffffffffffffffffffffff1673ffffffffffffffffffffffffffffffffffffffff16815260200190815260200160002060000160019054906101000a900460ff16151515610962576040517f08c379a000000000000000000000000000000000000000000000000000000000815260040180806020018281038252601c8152602001807f7468652063616c6c65722068617320616c726561647920766f7465640000000081525060200191505060405180910390fd5b6001600260003373ffffffffffffffffffffffffffffffffffffffff1673ffffffffffffffffffffffffffffffffffffffff16815260200190815260200160002060000160016101000a81548160ff02191690831515021790555080600260003373ffffffffffffffffffffffffffffffffffffffff1673ffffffffffffffffffffffffffffffffffffffff16815260200190815260200160002060010181905550600160036000838152602001908152602001600020600201600082825401925050819055507f0902475a854b82199b4f5d6b81327ec4c4ec077ce0356a106ddc2748c5285ed33382604051808373ffffffffffffffffffffffffffffffffffffffff1673ffffffffffffffffffffffffffffffffffffffff1681526020018281526020019250505060405180910390a150565b60008060009054906101000a900473ffffffffffffffffffffffffffffffffffffffff1673ffffffffffffffffffffffffffffffffffffffff168273ffffffffffffffffffffffffffffffffffffffff16149050919050565b60045481565b6003602052806000526040600020600091509050806000015490806001018054600181600116156101000203166002900480601f016020809104026020016040519081016040528092919081815260200182805460018160011615610100020316600290048015610ba85780601f10610b7d57610100808354040283529160200191610ba8565b820191906000526020600020905b815481529060010190602001808311610b8b57829003601f168201915b5050505050908060020154905083565b60008060008060009054906101000a900473ffffffffffffffffffffffffffffffffffffffff1673ffffffffffffffffffffffffffffffffffffffff163373ffffffffffffffffffffffffffffffffffffffff16141515610ca7576040517f08c379a000000000000000000000000000000000000000000000000000000000815260040180806020018281038252602c8152602001807f5468652063616c6c6572206f6620746869732066756e6374696f6e206d75737481526020017f20626520616e2061646d696e000000000000000000000000000000000000000081525060400191505060405180910390fd5b60046005811115610cb457fe5b600060149054906101000a900460ff166005811115610ccf57fe5b141515610d90576040517f08c379a00000000000000000000000000000000000000000000000000000000081526004018080602001828103825260438152602001807f746869732066756e6374696f6e2063616e2062652063616c6c6564206f6e6c7981526020017f2061667465722074686520766f74696e672073657373696f6e2068617320656e81526020017f646564000000000000000000000000000000000000000000000000000000000081525060600191505060405180910390fd5b6000925060009150600090505b600454811015610def578260036000838152602001908152602001600020600201541115610de257600360008281526020019081526020016000206002015492508091505b8080600101915050610d9d565b816001819055506005600060146101000a81548160ff02191690836005811115610e1557fe5b02179055507fa1f82a14ea162408785ef8969f7cf08b2bb72b081f8d4e2eda49846e52f439c660405160405180910390a17f9474022b1c97b70d3479aafe8672c447d1837ad99ae1f735eced168a65252d166004600060149054906101000a900460ff1660405180836005811115610e8957fe5b60ff168152602001826005811115610e9d57fe5b60ff1681526020019250505060405180910390a1505050565b6000809054906101000a900473ffffffffffffffffffffffffffffffffffffffff1673ffffffffffffffffffffffffffffffffffffffff163373ffffffffffffffffffffffffffffffffffffffff16141515610fa0576040517f08c379a000000000000000000000000000000000000000000000000000000000815260040180806020018281038252602c8152602001807f5468652063616c6c6572206f6620746869732066756e6374696f6e206d75737481526020017f20626520616e2061646d696e000000000000000000000000000000000000000081525060400191505060405180910390fd5b60006005811115610fad57fe5b600060149054906101000a900460ff166005811115610fc857fe5b141515611089576040517f08c379a000000000000000000000000000000000000000000000000000000000815260040180806020018281038252604b8152602001807f746869732066756e6374696f6e2063616e2062652063616c6c6564206f6e6c7981526020017f206265666f72652043616e6469646174657320726567697374726174696f6e2081526020017f686173207374617274656400000000000000000000000000000000000000000081525060600191505060405180910390fd5b600260008273ffffffffffffffffffffffffffffffffffffffff1673ffffffffffffffffffffffffffffffffffffffff16815260200190815260200160002060000160009054906101000a900460ff1615151561114e576040517f08c379a000000000000000000000000000000000000000000000000000000000815260040180806020018281038252601f8152602001807f74686520766f74657220697320616c726561647920726567697374657265640081525060200191505060405180910390fd5b6001600260008373ffffffffffffffffffffffffffffffffffffffff1673ffffffffffffffffffffffffffffffffffffffff16815260200190815260200160002060000160006101000a81548160ff0219169083151502179055506000600260008373ffffffffffffffffffffffffffffffffffffffff1673ffffffffffffffffffffffffffffffffffffffff16815260200190815260200160002060000160016101000a81548160ff0219169083151502179055507f42b360c89ba65a59ac7fec024a7bbb2c21d84b5abe5b5178ba0d7e34653a813081604051808273ffffffffffffffffffffffffffffffffffffffff1673ffffffffffffffffffffffffffffffffffffffff16815260200191505060405180910390a150565b600060058081111561127857fe5b600060149054906101000a900460ff16600581111561129357fe5b14151561132e576040517f08c379a000000000000000000000000000000000000000000000000000000000815260040180806020018281038252603e8152602001807f746869732066756e6374696f6e2063616e2062652063616c6c6564206f6e6c7981526020017f20616674657220766f7465732068617665206265656e2074616c6c696564000081525060400191505060405180910390fd5b600154905090565b606060058081111561134457fe5b600060149054906101000a900460ff16600581111561135f57fe5b1415156113fa576040517f08c379a000000000000000000000000000000000000000000000000000000000815260040180806020018281038252603e8152602001807f746869732066756e6374696f6e2063616e2062652063616c6c6564206f6e6c7981526020017f20616674657220766f7465732068617665206265656e2074616c6c696564000081525060400191505060405180910390fd5b611405600154611bfb565b905090565b600260003373ffffffffffffffffffffffffffffffffffffffff1673ffffffffffffffffffffffffffffffffffffffff16815260200190815260200160002060000160009054906101000a900460ff1615156114f4576040517f08c379a00000000000000000000000000000000000000000000000000000000081526004018080602001828103825260368152602001807f7468652063616c6c6572206f6620746869732066756e6374696f6e206d75737481526020017f2062652061207265676973746572656420766f7465720000000000000000000081525060400191505060405180910390fd5b6001600581111561150157fe5b600060149054906101000a900460ff16600581111561151c57fe5b1415156115b7576040517f08c379a000000000000000000000000000000000000000000000000000000000815260040180806020018281038252603f8152602001807f746869732066756e6374696f6e2063616e2062652063616c6c6564206f6e6c7981526020017f20647572696e672043616e6469646174657320726567697374726174696f6e0081525060400191505060405180910390fd5b606060405190810160405280600454815260200182815260200160008152506003600060045481526020019081526020016000206000820151816000015560208201518160010190805190602001906116119291906122ef565b50604082015181600201559050506004600081548092919060010191905055507ff23ce42eb3d2878c26ab610ef7d3edf80e07cfb6568d4028550637f27c73db416004546040518082815260200191505060405180910390a150565b600060149054906101000a900460ff1681565b60026020528060005260406000206000915090508060000160009054906101000a900460ff16908060000160019054906101000a900460ff16908060010154905083565b6000809054906101000a900473ffffffffffffffffffffffffffffffffffffffff1673ffffffffffffffffffffffffffffffffffffffff163373ffffffffffffffffffffffffffffffffffffffff161415156117ae576040517f08c379a000000000000000000000000000000000000000000000000000000000815260040180806020018281038252602c8152602001807f5468652063616c6c6572206f6620746869732066756e6374696f6e206d75737481526020017f20626520616e2061646d696e000000000000000000000000000000000000000081525060400191505060405180910390fd5b600360058111156117bb57fe5b600060149054906101000a900460ff1660058111156117d657fe5b141515611871576040517f08c379a000000000000000000000000000000000000000000000000000000000815260040180806020018281038252603a8152602001807f746869732066756e6374696f6e2063616e2062652063616c6c6564206f6e6c7981526020017f20647572696e672074686520766f74696e672073657373696f6e00000000000081525060400191505060405180910390fd5b6004600060146101000a81548160ff0219169083600581111561189057fe5b02179055507f86a7e3ed2917a2b5f100160b6e558c8e7ae6e4fb8f2673d860d3f11b4f345e7260405160405180910390a17f9474022b1c97b70d3479aafe8672c447d1837ad99ae1f735eced168a65252d166004600060149054906101000a900460ff166040518083600581111561190457fe5b60ff16815260200182600581111561191857fe5b60ff1681526020019250505060405180910390a1565b6000809054906101000a900473ffffffffffffffffffffffffffffffffffffffff1673ffffffffffffffffffffffffffffffffffffffff163373ffffffffffffffffffffffffffffffffffffffff16141515611a18576040517f08c379a000000000000000000000000000000000000000000000000000000000815260040180806020018281038252602c8152602001807f5468652063616c6c6572206f6620746869732066756e6374696f6e206d75737481526020017f20626520616e2061646d696e000000000000000000000000000000000000000081525060400191505060405180910390fd5b60016005811115611a2557fe5b600060149054906101000a900460ff166005811115611a4057fe5b141515611adb576040517f08c379a000000000000000000000000000000000000000000000000000000000815260040180806020018281038252603f8152602001807f746869732066756e6374696f6e2063616e2062652063616c6c6564206f6e6c7981526020017f20647572696e672043616e6469646174657320726567697374726174696f6e0081525060400191505060405180910390fd5b6002600060146101000a81548160ff02191690836005811115611afa57fe5b02179055507fcfa01cb1ec219d4e88a35aee152f8b34bbc8ebccce15d61c9583bc51a48f8e2160405160405180910390a17f9474022b1c97b70d3479aafe8672c447d1837ad99ae1f735eced168a65252d166001600060149054906101000a900460ff1660405180836005811115611b6e57fe5b60ff168152602001826005811115611b8257fe5b60ff1681526020019250505060405180910390a1565b6000600454905090565b6000600260008373ffffffffffffffffffffffffffffffffffffffff1673ffffffffffffffffffffffffffffffffffffffff16815260200190815260200160002060000160009054906101000a900460ff169050919050565b6060600360008381526020019081526020016000206001018054600181600116156101000203166002900480601f016020809104026020016040519081016040528092919081815260200182805460018160011615610100020316600290048015611ca75780601f10611c7c57610100808354040283529160200191611ca7565b820191906000526020600020905b815481529060010190602001808311611c8a57829003601f168201915b50505050509050919050565b6000809054906101000a900473ffffffffffffffffffffffffffffffffffffffff1673ffffffffffffffffffffffffffffffffffffffff163373ffffffffffffffffffffffffffffffffffffffff16141515611d9d576040517f08c379a000000000000000000000000000000000000000000000000000000000815260040180806020018281038252602c8152602001807f5468652063616c6c6572206f6620746869732066756e6374696f6e206d75737481526020017f20626520616e2061646d696e000000000000000000000000000000000000000081525060400191505060405180910390fd5b60026005811115611daa57fe5b600060149054906101000a900460ff166005811115611dc557fe5b141515611e86576040517f08c379a00000000000000000000000000000000000000000000000000000000081526004018080602001828103825260488152602001807f746869732066756e6374696f6e2063616e2062652063616c6c6564206f6e6c7981526020017f2061667465722043616e6469646174657320726567697374726174696f6e206881526020017f617320656e64656400000000000000000000000000000000000000000000000081525060600191505060405180910390fd5b6003600060146101000a81548160ff02191690836005811115611ea557fe5b02179055507ffca8377aff3a08252b769c58e6769a534922eabaaf9952691ea9cfcaed41fbd860405160405180910390a17f9474022b1c97b70d3479aafe8672c447d1837ad99ae1f735eced168a65252d166003600060149054906101000a900460ff1660405180836005811115611f1957fe5b60ff168152602001826005811115611f2d57fe5b60ff1681526020019250505060405180910390a1565b6000809054906101000a900473ffffffffffffffffffffffffffffffffffffffff1681565b60008060149054906101000a900460ff16905090565b6000600580811115611f8c57fe5b600060149054906101000a900460ff166005811115611fa757fe5b141515612042576040517f08c379a000000000000000000000000000000000000000000000000000000000815260040180806020018281038252603e8152602001807f746869732066756e6374696f6e2063616e2062652063616c6c6564206f6e6c7981526020017f20616674657220766f7465732068617665206265656e2074616c6c696564000081525060400191505060405180910390fd5b60036000600154815260200190815260200160002060020154905090565b6000809054906101000a900473ffffffffffffffffffffffffffffffffffffffff1673ffffffffffffffffffffffffffffffffffffffff163373ffffffffffffffffffffffffffffffffffffffff1614151561214a576040517f08c379a000000000000000000000000000000000000000000000000000000000815260040180806020018281038252602c8152602001807f5468652063616c6c6572206f6620746869732066756e6374696f6e206d75737481526020017f20626520616e2061646d696e000000000000000000000000000000000000000081525060400191505060405180910390fd5b6000600581111561215757fe5b600060149054906101000a900460ff16600581111561217257fe5b141515612233576040517f08c379a000000000000000000000000000000000000000000000000000000000815260040180806020018281038252604b8152602001807f746869732066756e6374696f6e2063616e2062652063616c6c6564206f6e6c7981526020017f206265666f72652043616e6469646174657320726567697374726174696f6e2081526020017f686173207374617274656400000000000000000000000000000000000000000081525060600191505060405180910390fd5b6001600060146101000a81548160ff0219169083600581111561225257fe5b02179055507fff6d4232a6d1a80821bd482c8c8d479978fdc19040962abfa5deca702eefab2260405160405180910390a17f9474022b1c97b70d3479aafe8672c447d1837ad99ae1f735eced168a65252d1660008060149054906101000a900460ff16604051808360058111156122c557fe5b60ff1681526020018260058111156122d957fe5b60ff1681526020019250505060405180910390a1565b828054600181600116156101000203166002900490600052602060002090601f016020900481019282601f1061233057805160ff191683800117855561235e565b8280016001018555821561235e579182015b8281111561235d578251825591602001919060010190612342565b5b50905061236b919061236f565b5090565b61239191905b8082111561238d576000816000905550600101612375565b5090565b905600a165627a7a72305820e9478e0d8b5763fab44c32545179eacf238d33c4e45d28eaeca82b56fcfb56db0029",
  "source": "pragma solidity 0.4.25;\r\n\r\ncontract Election {\r\n    // Model a Candidate\r\n    struct Candidate {\r\n        uint id;\r\n        string name;\r\n        uint voteCount;\r\n    }\r\n\r\n    struct Voter {\r\n        bool isRegistered;\r\n        bool hasVoted;\r\n        uint votedCandidateId;\r\n    }\r\n\r\n    address public administrator;\r\n\r\n    enum WorkflowStatus {\r\n        RegisteringVoters, \r\n        CandidatesRegistrationStarted,\r\n        CandidatesRegistrationEnded,\r\n        VotingSessionStarted,\r\n        VotingSessionEnded,\r\n        VotesTallied\r\n    }\r\n\r\n    WorkflowStatus public workflowStatus;\r\n\r\n    uint private winningCandidateId;\r\n\r\n    // Store accounts that have voted\r\n    mapping(address => Voter) public voters;\r\n    // Store Candidates\r\n    // Fetch Candidate\r\n    mapping(uint => Candidate) public candidates;\r\n    // Store Candidates Count\r\n    uint public candidatesCount;\r\n\r\n    // // voted event\r\n    // event votedEvent (\r\n    //     uint indexed _candidateId\r\n    // );\r\n\r\n    event VoterRegisteredEvent (address voterAddress); \r\n    event CandidateRegistrationStartedEvent ();\r\n    event CandidateRegistrationEndedEvent ();\r\n    event CandidateRegisteredEvent(uint candidateId);\r\n    event VotingSessionStartedEvent ();\r\n    event VotingSessionEndedEvent ();\r\n    event VotedEvent (address voter, uint candidateId);\r\n    event VotesTalliedEvent ();\r\n\r\n    event WorkflowStatusChangeEvent (\r\n        WorkflowStatus previousStatus,\r\n        WorkflowStatus newStatus\r\n    );\r\n\r\n    constructor () public {\r\n        administrator = msg.sender;\r\n        workflowStatus = WorkflowStatus.RegisteringVoters;\r\n\r\n        // TODO: remove these next two lines and have candidate registration done by admin\r\n        // addCandidate(\"Candidate 1\");\r\n        // addCandidate(\"Candidate 2\");\r\n    }\r\n\r\n    modifier onlyAdministrator(){\r\n        require(msg.sender == administrator, \"The caller of this function must be an admin\");\r\n        _;\r\n    }\r\n    modifier onlyRegisteredVoter() {\r\n        require(voters[msg.sender].isRegistered, \r\n        \"the caller of this function must be a registered voter\");\r\n        _;\r\n    }\r\n\r\n    modifier onlyDuringVotersRegistration() {\r\n        require(workflowStatus == WorkflowStatus.RegisteringVoters,\"this function can be called only before Candidates registration has started\");\r\n        _;\r\n    }\r\n\r\n    modifier onlyDuringCandidatesRegistration() {\r\n        require(workflowStatus == WorkflowStatus.CandidatesRegistrationStarted, \"this function can be called only during Candidates registration\");\r\n        _;\r\n    }\r\n\r\n        modifier onlyAfterCandidatesRegistration() {\r\n        require(workflowStatus == WorkflowStatus.CandidatesRegistrationEnded, \"this function can be called only after Candidates registration has ended\");\r\n       _;\r\n    }\r\n    \r\n    modifier onlyDuringVotingSession() {\r\n        require(workflowStatus == WorkflowStatus.VotingSessionStarted, \"this function can be called only during the voting session\");\r\n       _;\r\n    }\r\n    \r\n    modifier onlyAfterVotingSession() {\r\n        require(workflowStatus == WorkflowStatus.VotingSessionEnded,  \"this function can be called only after the voting session has ended\");\r\n       _;\r\n    }\r\n    \r\n    modifier onlyAfterVotesTallied() {\r\n        require(workflowStatus == WorkflowStatus.VotesTallied,  \r\n           \"this function can be called only after votes have been tallied\");\r\n       _;\r\n    }\r\n\r\n    function registerVoter(address _voterAddress) \r\n        public onlyAdministrator onlyDuringVotersRegistration {\r\n            \r\n        require(!voters[_voterAddress].isRegistered, \"the voter is already registered\");\r\n            \r\n        voters[_voterAddress].isRegistered = true;\r\n        voters[_voterAddress].hasVoted = false;\r\n\r\n        emit VoterRegisteredEvent(_voterAddress);\r\n    }\r\n\r\n    function startCandidatesRegistration ()\r\n        public onlyAdministrator onlyDuringVotersRegistration {\r\n        workflowStatus = WorkflowStatus.CandidatesRegistrationStarted;\r\n            \r\n        emit CandidateRegistrationStartedEvent();\r\n        emit WorkflowStatusChangeEvent(\r\n            WorkflowStatus. RegisteringVoters, workflowStatus);\r\n    }\r\n    \r\n    function endCandidatesRegistration() \r\n        public onlyAdministrator onlyDuringCandidatesRegistration {\r\n        workflowStatus = WorkflowStatus.CandidatesRegistrationEnded;\r\n\r\n        emit CandidateRegistrationEndedEvent();        \r\n        emit WorkflowStatusChangeEvent(\r\n            WorkflowStatus.CandidatesRegistrationStarted, workflowStatus);\r\n    }\r\n    //     enum WorkflowStatus {\r\n    //     RegisteringVoters, \r\n    //     CandidatesRegistrationStarted,\r\n    //     CandidatesRegistrationEnded,\r\n    //     VotingSessionStarted,\r\n    //     VotingSessionEnded,\r\n    //     VotesTallied\r\n    // }\r\n    function startVotingSession() \r\n        public onlyAdministrator onlyAfterCandidatesRegistration {\r\n        workflowStatus = WorkflowStatus.VotingSessionStarted;\r\n\r\n        emit VotingSessionStartedEvent();        \r\n        emit WorkflowStatusChangeEvent(\r\n            WorkflowStatus.VotingSessionStarted, workflowStatus);\r\n    }\r\n        function endVotingSession() \r\n        public onlyAdministrator onlyDuringVotingSession {\r\n        workflowStatus = WorkflowStatus.VotingSessionEnded;\r\n\r\n        emit VotingSessionEndedEvent();        \r\n        emit WorkflowStatusChangeEvent(\r\n            WorkflowStatus.VotingSessionEnded, workflowStatus);\r\n    }\r\n\r\n    function registerCandidate(string candidateName) \r\n        public onlyRegisteredVoter onlyDuringCandidatesRegistration {\r\n        candidates[candidatesCount] = (Candidate(candidatesCount, candidateName, 0));\r\n        candidatesCount++;\r\n\r\n        emit CandidateRegisteredEvent(candidatesCount);\r\n    }\r\n\r\n\r\n    // function addCandidate (string _name) private {\r\n    //     candidatesCount ++;\r\n    //     candidates[candidatesCount] = Candidate(candidatesCount, _name, 0);\r\n    // }\r\n\r\n    function vote(uint candidateId) public onlyRegisteredVoter onlyDuringVotingSession  {\r\n        require(!voters[msg.sender].hasVoted, \"the caller has already voted\");\r\n            \r\n        voters[msg.sender].hasVoted = true;\r\n        voters[msg.sender].votedCandidateId = candidateId;\r\n            \r\n        candidates[candidateId].voteCount += 1;\r\n\r\n        emit VotedEvent(msg.sender, candidateId);\r\n    }\r\n\r\n\r\n//     function vote (uint _candidateId) public {\r\n//         // require that they haven't voted before\r\n//         require(!voters[msg.sender]);\r\n// \r\n//         // require a valid candidate\r\n//         require(_candidateId > 0 && _candidateId <= candidatesCount);\r\n// \r\n//         // record that voter has voted\r\n//         voters[msg.sender] = true;\r\n// \r\n//         // update candidate vote Count\r\n//         candidates[_candidateId].voteCount ++;\r\n// \r\n//         // trigger voted event\r\n//         emit votedEvent(_candidateId);\r\n//     }\r\n    function tallyVotes() \r\n        onlyAdministrator \r\n        onlyAfterVotingSession  public {\r\n        uint winningVoteCount = 0;\r\n        uint winningCandidateIndex = 0;\r\n\r\n            \r\n        for (uint i = 0; i < candidatesCount; i++) {\r\n            if (candidates[i].voteCount > winningVoteCount) {\r\n                winningVoteCount = candidates[i].voteCount;\r\n                winningCandidateIndex = i;\r\n            }\r\n        }\r\n            \r\n        winningCandidateId = winningCandidateIndex;\r\n        workflowStatus = WorkflowStatus.VotesTallied;\r\n\r\n        emit VotesTalliedEvent();\r\n        emit WorkflowStatusChangeEvent(\r\n            WorkflowStatus.VotingSessionEnded, workflowStatus);\r\n    }\r\n\r\n    // views\r\n\r\n    function getCandidatesNumber() public view\r\n        returns (uint) {\r\n            return candidatesCount;\r\n    }\r\n\r\n    function getCandidateName(uint index) public view \r\n        returns (string) {\r\n            return candidates[index].name;\r\n    }\r\n\r\n    function getWinningCandidateId() onlyAfterVotesTallied \r\n    public view\r\n        returns (uint) {\r\n        return winningCandidateId;\r\n}\r\n    \r\n    function getWinningCandidateName() onlyAfterVotesTallied \r\n        public view\r\n            returns (string) {\r\n            return getCandidateName(winningCandidateId);\r\n    }  \r\n\r\n    function getWinningCandidateVoteCounts() onlyAfterVotesTallied \r\n        public view\r\n            returns (uint) {\r\n            return candidates[winningCandidateId].voteCount;\r\n    }\r\n\r\n    function isRegisteredVoter(address _voterAddress) public view\r\n        returns (bool) {\r\n        return voters[_voterAddress].isRegistered;\r\n    }\r\n\r\n    function isAdministrator(address _address) public view \r\n        returns (bool){\r\n        return _address == administrator;\r\n    }\r\n\r\n    function getWorkflowStatus() public view\r\n    returns (WorkflowStatus) {\r\n    return workflowStatus;       \r\n    }\r\n}\r\n",
  "sourcePath": "C:\\Users\\akatzin\\git\\electionDAPP\\election\\contracts\\Election.sol",
  "compiler": {
    "name": "solc",
    "version": "0.4.25+commit.59dbf8f1.Emscripten.clang"
  },
  "schemaVersion": "3.4.4",
  "updatedAt": "2022-02-08T18:29:43.956Z",
  "networkType": "ethereum",
  "devdoc": {
    "methods": {}
  },
  "userdoc": {
    "methods": {}
  }
}