{
  "contractName": "SimpleVoting",
  "abi": [
    {
      "constant": true,
      "inputs": [],
      "name": "candidatesCount",
      "outputs": [
        {
          "name": "",
          "type": "uint256"
        }
      ],
      "payable": false,
      "stateMutability": "view",
      "type": "function"
    },
    {
      "constant": true,
      "inputs": [
        {
          "name": "",
          "type": "uint256"
        }
      ],
      "name": "candidates",
      "outputs": [
        {
          "name": "id",
          "type": "uint256"
        },
        {
          "name": "name",
          "type": "string"
        },
        {
          "name": "voteCount",
          "type": "uint256"
        }
      ],
      "payable": false,
      "stateMutability": "view",
      "type": "function"
    },
    {
      "constant": true,
      "inputs": [],
      "name": "workflowStatus",
      "outputs": [
        {
          "name": "",
          "type": "uint8"
        }
      ],
      "payable": false,
      "stateMutability": "view",
      "type": "function"
    },
    {
      "constant": true,
      "inputs": [
        {
          "name": "",
          "type": "address"
        }
      ],
      "name": "voters",
      "outputs": [
        {
          "name": "isRegistered",
          "type": "bool"
        },
        {
          "name": "hasVoted",
          "type": "bool"
        },
        {
          "name": "votedCandidateId",
          "type": "uint256"
        }
      ],
      "payable": false,
      "stateMutability": "view",
      "type": "function"
    },
    {
      "constant": true,
      "inputs": [],
      "name": "administrator",
      "outputs": [
        {
          "name": "",
          "type": "address"
        }
      ],
      "payable": false,
      "stateMutability": "view",
      "type": "function"
    },
    {
      "inputs": [],
      "payable": false,
      "stateMutability": "nonpayable",
      "type": "constructor"
    },
    {
      "anonymous": false,
      "inputs": [
        {
          "indexed": false,
          "name": "voterAddress",
          "type": "address"
        }
      ],
      "name": "VoterRegisteredEvent",
      "type": "event"
    },
    {
      "anonymous": false,
      "inputs": [],
      "name": "CandidatesRegistrationStartedEvent",
      "type": "event"
    },
    {
      "anonymous": false,
      "inputs": [],
      "name": "CandidatesRegistrationEndedEvent",
      "type": "event"
    },
    {
      "anonymous": false,
      "inputs": [
        {
          "indexed": false,
          "name": "candidateId",
          "type": "uint256"
        }
      ],
      "name": "CandidatesRegisteredEvent",
      "type": "event"
    },
    {
      "anonymous": false,
      "inputs": [],
      "name": "VotingSessionStartedEvent",
      "type": "event"
    },
    {
      "anonymous": false,
      "inputs": [],
      "name": "VotingSessionEndedEvent",
      "type": "event"
    },
    {
      "anonymous": false,
      "inputs": [
        {
          "indexed": false,
          "name": "voter",
          "type": "address"
        },
        {
          "indexed": false,
          "name": "candidateId",
          "type": "uint256"
        }
      ],
      "name": "VotedEvent",
      "type": "event"
    },
    {
      "anonymous": false,
      "inputs": [],
      "name": "VotesTalliedEvent",
      "type": "event"
    },
    {
      "anonymous": false,
      "inputs": [
        {
          "indexed": false,
          "name": "previousStatus",
          "type": "uint8"
        },
        {
          "indexed": false,
          "name": "newStatus",
          "type": "uint8"
        }
      ],
      "name": "WorkflowStatusChangeEvent",
      "type": "event"
    },
    {
      "constant": false,
      "inputs": [
        {
          "name": "_voterAddress",
          "type": "address"
        }
      ],
      "name": "registerVoter",
      "outputs": [],
      "payable": false,
      "stateMutability": "nonpayable",
      "type": "function"
    },
    {
      "constant": false,
      "inputs": [],
      "name": "startCandidatesRegistration",
      "outputs": [],
      "payable": false,
      "stateMutability": "nonpayable",
      "type": "function"
    },
    {
      "constant": false,
      "inputs": [],
      "name": "endCandidatesRegistration",
      "outputs": [],
      "payable": false,
      "stateMutability": "nonpayable",
      "type": "function"
    },
    {
      "constant": false,
      "inputs": [
        {
          "name": "candidateName",
          "type": "string"
        }
      ],
      "name": "registerCandidate",
      "outputs": [],
      "payable": false,
      "stateMutability": "nonpayable",
      "type": "function"
    },
    {
      "constant": false,
      "inputs": [
        {
          "name": "candidateId",
          "type": "uint256"
        }
      ],
      "name": "vote",
      "outputs": [],
      "payable": false,
      "stateMutability": "nonpayable",
      "type": "function"
    },
    {
      "constant": false,
      "inputs": [],
      "name": "tallyVotes",
      "outputs": [],
      "payable": false,
      "stateMutability": "nonpayable",
      "type": "function"
    },
    {
      "constant": true,
      "inputs": [],
      "name": "getCandidatesNumber",
      "outputs": [
        {
          "name": "",
          "type": "uint256"
        }
      ],
      "payable": false,
      "stateMutability": "view",
      "type": "function"
    },
    {
      "constant": true,
      "inputs": [
        {
          "name": "index",
          "type": "uint256"
        }
      ],
      "name": "getCandidateName",
      "outputs": [
        {
          "name": "",
          "type": "string"
        }
      ],
      "payable": false,
      "stateMutability": "view",
      "type": "function"
    },
    {
      "constant": true,
      "inputs": [],
      "name": "getWinningCandidateId",
      "outputs": [
        {
          "name": "",
          "type": "uint256"
        }
      ],
      "payable": false,
      "stateMutability": "view",
      "type": "function"
    },
    {
      "constant": true,
      "inputs": [],
      "name": "getWinningCandidateName",
      "outputs": [
        {
          "name": "",
          "type": "string"
        }
      ],
      "payable": false,
      "stateMutability": "view",
      "type": "function"
    },
    {
      "constant": true,
      "inputs": [],
      "name": "getWinningCandidateVoteCounts",
      "outputs": [
        {
          "name": "",
          "type": "uint256"
        }
      ],
      "payable": false,
      "stateMutability": "view",
      "type": "function"
    },
    {
      "constant": true,
      "inputs": [
        {
          "name": "_voterAddress",
          "type": "address"
        }
      ],
      "name": "isRegisteredVoter",
      "outputs": [
        {
          "name": "",
          "type": "bool"
        }
      ],
      "payable": false,
      "stateMutability": "view",
      "type": "function"
    },
    {
      "constant": true,
      "inputs": [
        {
          "name": "_address",
          "type": "address"
        }
      ],
      "name": "isAdministrator",
      "outputs": [
        {
          "name": "",
          "type": "bool"
        }
      ],
      "payable": false,
      "stateMutability": "view",
      "type": "function"
    },
    {
      "constant": true,
      "inputs": [],
      "name": "getWorkflowStatus",
      "outputs": [
        {
          "name": "",
          "type": "uint8"
        }
      ],
      "payable": false,
      "stateMutability": "view",
      "type": "function"
    }
  ],
  "bytecode": "0x608060405234801561001057600080fd5b50336000806101000a81548173ffffffffffffffffffffffffffffffffffffffff021916908373ffffffffffffffffffffffffffffffffffffffff16021790555060008060146101000a81548160ff0219169083600581111561006f57fe5b0217905550611f28806100836000396000f300608060405260043610610107576000357c0100000000000000000000000000000000000000000000000000000000900463ffffffff1680630121b93f1461010c5780630a2eb301146101395780632d35a8a2146101945780633477ee2e146101bf578063378a21781461027357806338db6dd31461028a57806383c842c5146102cd5780639c8093a8146102f85780639eb88db614610388578063a1edffa2146103f1578063a3ec138d1461042a578063b15770f414610497578063bd0c3928146104ae578063da36cffe146104d9578063e13804a714610534578063f53d0a8e146105da578063f75d64a614610631578063f8f651271461066a578063ffceb18614610695575b600080fd5b34801561011857600080fd5b50610137600480360381019080803590602001909291905050506106ac565b005b34801561014557600080fd5b5061017a600480360381019080803573ffffffffffffffffffffffffffffffffffffffff169060200190929190505050610a53565b604051808215151515815260200191505060405180910390f35b3480156101a057600080fd5b506101a9610aac565b6040518082815260200191505060405180910390f35b3480156101cb57600080fd5b506101ea60048036038101908080359060200190929190505050610ab2565b6040518084815260200180602001838152602001828103825284818151815260200191508051906020019080838360005b8381101561023657808201518184015260208101905061021b565b50505050905090810190601f1680156102635780820380516001836020036101000a031916815260200191505b5094505050505060405180910390f35b34801561027f57600080fd5b50610288610b74565b005b34801561029657600080fd5b506102cb600480360381019080803573ffffffffffffffffffffffffffffffffffffffff169060200190929190505050610e72565b005b3480156102d957600080fd5b506102e2611226565b6040518082815260200191505060405180910390f35b34801561030457600080fd5b5061030d6112f2565b6040518080602001828103825283818151815260200191508051906020019080838360005b8381101561034d578082015181840152602081019050610332565b50505050905090810190601f16801561037a5780820380516001836020036101000a031916815260200191505b509250505060405180910390f35b34801561039457600080fd5b506103ef600480360381019080803590602001908201803590602001908080601f016020809104026020016040519081016040528093929190818152602001838380828437820191505050505050919291929050505061146c565b005b3480156103fd57600080fd5b506104066116cf565b6040518082600581111561041657fe5b60ff16815260200191505060405180910390f35b34801561043657600080fd5b5061046b600480360381019080803573ffffffffffffffffffffffffffffffffffffffff1690602001909291905050506116e2565b604051808415151515815260200183151515158152602001828152602001935050505060405180910390f35b3480156104a357600080fd5b506104ac611726565b005b3480156104ba57600080fd5b506104c3611990565b6040518082815260200191505060405180910390f35b3480156104e557600080fd5b5061051a600480360381019080803573ffffffffffffffffffffffffffffffffffffffff16906020019092919050505061199a565b604051808215151515815260200191505060405180910390f35b34801561054057600080fd5b5061055f600480360381019080803590602001909291905050506119f3565b6040518080602001828103825283818151815260200191508051906020019080838360005b8381101561059f578082015181840152602081019050610584565b50505050905090810190601f1680156105cc5780820380516001836020036101000a031916815260200191505b509250505060405180910390f35b3480156105e657600080fd5b506105ef611aab565b604051808273ffffffffffffffffffffffffffffffffffffffff1673ffffffffffffffffffffffffffffffffffffffff16815260200191505060405180910390f35b34801561063d57600080fd5b50610646611ad0565b6040518082600581111561065657fe5b60ff16815260200191505060405180910390f35b34801561067657600080fd5b5061067f611ae6565b6040518082815260200191505060405180910390f35b3480156106a157600080fd5b506106aa611bc8565b005b600260003373ffffffffffffffffffffffffffffffffffffffff1673ffffffffffffffffffffffffffffffffffffffff16815260200190815260200160002060000160009054906101000a900460ff161515610796576040517f08c379a00000000000000000000000000000000000000000000000000000000081526004018080602001828103825260368152602001807f7468652063616c6c6572206f6620746869732066756e6374696f6e206d75737481526020017f2062652061207265676973746572656420766f7465720000000000000000000081525060400191505060405180910390fd5b600360058111156107a357fe5b600060149054906101000a900460ff1660058111156107be57fe5b141515610859576040517f08c379a000000000000000000000000000000000000000000000000000000000815260040180806020018281038252603a8152602001807f746869732066756e6374696f6e2063616e2062652063616c6c6564206f6e6c7981526020017f20647572696e672074686520766f74696e672073657373696f6e00000000000081525060400191505060405180910390fd5b600260003373ffffffffffffffffffffffffffffffffffffffff1673ffffffffffffffffffffffffffffffffffffffff16815260200190815260200160002060000160019054906101000a900460ff1615151561091e576040517f08c379a000000000000000000000000000000000000000000000000000000000815260040180806020018281038252601c8152602001807f7468652063616c6c65722068617320616c726561647920766f7465640000000081525060200191505060405180910390fd5b6001600260003373ffffffffffffffffffffffffffffffffffffffff1673ffffffffffffffffffffffffffffffffffffffff16815260200190815260200160002060000160016101000a81548160ff02191690831515021790555080600260003373ffffffffffffffffffffffffffffffffffffffff1673ffffffffffffffffffffffffffffffffffffffff16815260200190815260200160002060010181905550600160036000838152602001908152602001600020600201600082825401925050819055507f0902475a854b82199b4f5d6b81327ec4c4ec077ce0356a106ddc2748c5285ed33382604051808373ffffffffffffffffffffffffffffffffffffffff1673ffffffffffffffffffffffffffffffffffffffff1681526020018281526020019250505060405180910390a150565b60008060009054906101000a900473ffffffffffffffffffffffffffffffffffffffff1673ffffffffffffffffffffffffffffffffffffffff168273ffffffffffffffffffffffffffffffffffffffff16149050919050565b60045481565b6003602052806000526040600020600091509050806000015490806001018054600181600116156101000203166002900480601f016020809104026020016040519081016040528092919081815260200182805460018160011615610100020316600290048015610b645780601f10610b3957610100808354040283529160200191610b64565b820191906000526020600020905b815481529060010190602001808311610b4757829003601f168201915b5050505050908060020154905083565b60008060008060009054906101000a900473ffffffffffffffffffffffffffffffffffffffff1673ffffffffffffffffffffffffffffffffffffffff163373ffffffffffffffffffffffffffffffffffffffff16141515610c63576040517f08c379a000000000000000000000000000000000000000000000000000000000815260040180806020018281038252602c8152602001807f5468652063616c6c6572206f6620746869732066756e6374696f6e206d75737481526020017f20626520616e2061646d696e000000000000000000000000000000000000000081525060400191505060405180910390fd5b60046005811115610c7057fe5b600060149054906101000a900460ff166005811115610c8b57fe5b141515610d4c576040517f08c379a00000000000000000000000000000000000000000000000000000000081526004018080602001828103825260438152602001807f746869732066756e6374696f6e2063616e2062652063616c6c6564206f6e6c7981526020017f2061667465722074686520766f74696e672073657373696f6e2068617320656e81526020017f646564000000000000000000000000000000000000000000000000000000000081525060600191505060405180910390fd5b6000925060009150600090505b600454811015610dab578260036000838152602001908152602001600020600201541115610d9e57600360008281526020019081526020016000206002015492508091505b8080600101915050610d59565b816001819055506005600060146101000a81548160ff02191690836005811115610dd157fe5b02179055507fa1f82a14ea162408785ef8969f7cf08b2bb72b081f8d4e2eda49846e52f439c660405160405180910390a17f9474022b1c97b70d3479aafe8672c447d1837ad99ae1f735eced168a65252d166004600060149054906101000a900460ff1660405180836005811115610e4557fe5b60ff168152602001826005811115610e5957fe5b60ff1681526020019250505060405180910390a1505050565b6000809054906101000a900473ffffffffffffffffffffffffffffffffffffffff1673ffffffffffffffffffffffffffffffffffffffff163373ffffffffffffffffffffffffffffffffffffffff16141515610f5c576040517f08c379a000000000000000000000000000000000000000000000000000000000815260040180806020018281038252602c8152602001807f5468652063616c6c6572206f6620746869732066756e6374696f6e206d75737481526020017f20626520616e2061646d696e000000000000000000000000000000000000000081525060400191505060405180910390fd5b60006005811115610f6957fe5b600060149054906101000a900460ff166005811115610f8457fe5b141515611045576040517f08c379a000000000000000000000000000000000000000000000000000000000815260040180806020018281038252604b8152602001807f746869732066756e6374696f6e2063616e2062652063616c6c6564206f6e6c7981526020017f206265666f72652043616e6469646174657320726567697374726174696f6e2081526020017f686173207374617274656400000000000000000000000000000000000000000081525060600191505060405180910390fd5b600260008273ffffffffffffffffffffffffffffffffffffffff1673ffffffffffffffffffffffffffffffffffffffff16815260200190815260200160002060000160009054906101000a900460ff1615151561110a576040517f08c379a000000000000000000000000000000000000000000000000000000000815260040180806020018281038252601f8152602001807f74686520766f74657220697320616c726561647920726567697374657265640081525060200191505060405180910390fd5b6001600260008373ffffffffffffffffffffffffffffffffffffffff1673ffffffffffffffffffffffffffffffffffffffff16815260200190815260200160002060000160006101000a81548160ff0219169083151502179055506000600260008373ffffffffffffffffffffffffffffffffffffffff1673ffffffffffffffffffffffffffffffffffffffff16815260200190815260200160002060000160016101000a81548160ff0219169083151502179055507f42b360c89ba65a59ac7fec024a7bbb2c21d84b5abe5b5178ba0d7e34653a813081604051808273ffffffffffffffffffffffffffffffffffffffff1673ffffffffffffffffffffffffffffffffffffffff16815260200191505060405180910390a150565b600060058081111561123457fe5b600060149054906101000a900460ff16600581111561124f57fe5b1415156112ea576040517f08c379a000000000000000000000000000000000000000000000000000000000815260040180806020018281038252603e8152602001807f746869732066756e6374696f6e2063616e2062652063616c6c6564206f6e6c7981526020017f20616674657220766f7465732068617665206265656e2074616c6c696564000081525060400191505060405180910390fd5b600154905090565b606060058081111561130057fe5b600060149054906101000a900460ff16600581111561131b57fe5b1415156113b6576040517f08c379a000000000000000000000000000000000000000000000000000000000815260040180806020018281038252603e8152602001807f746869732066756e6374696f6e2063616e2062652063616c6c6564206f6e6c7981526020017f20616674657220766f7465732068617665206265656e2074616c6c696564000081525060400191505060405180910390fd5b6003600060015481526020019081526020016000206001018054600181600116156101000203166002900480601f0160208091040260200160405190810160405280929190818152602001828054600181600116156101000203166002900480156114625780601f1061143757610100808354040283529160200191611462565b820191906000526020600020905b81548152906001019060200180831161144557829003601f168201915b5050505050905090565b600260003373ffffffffffffffffffffffffffffffffffffffff1673ffffffffffffffffffffffffffffffffffffffff16815260200190815260200160002060000160009054906101000a900460ff161515611556576040517f08c379a00000000000000000000000000000000000000000000000000000000081526004018080602001828103825260368152602001807f7468652063616c6c6572206f6620746869732066756e6374696f6e206d75737481526020017f2062652061207265676973746572656420766f7465720000000000000000000081525060400191505060405180910390fd5b6001600581111561156357fe5b600060149054906101000a900460ff16600581111561157e57fe5b141515611619576040517f08c379a000000000000000000000000000000000000000000000000000000000815260040180806020018281038252603f8152602001807f746869732066756e6374696f6e2063616e2062652063616c6c6564206f6e6c7981526020017f20647572696e672043616e6469646174657320726567697374726174696f6e0081525060400191505060405180910390fd5b60046000815480929190600101919050555060606040519081016040528060045481526020018281526020016000815250600360006004548152602001908152602001600020600082015181600001556020820151816001019080519060200190611685929190611e57565b50604082015181600201559050507fd9db6881568e6c85ddc2e2c3b4cab0b2c71935ef5fc86b1d4bc0dc65a42904ea6004546040518082815260200191505060405180910390a150565b600060149054906101000a900460ff1681565b60026020528060005260406000206000915090508060000160009054906101000a900460ff16908060000160019054906101000a900460ff16908060010154905083565b6000809054906101000a900473ffffffffffffffffffffffffffffffffffffffff1673ffffffffffffffffffffffffffffffffffffffff163373ffffffffffffffffffffffffffffffffffffffff16141515611810576040517f08c379a000000000000000000000000000000000000000000000000000000000815260040180806020018281038252602c8152602001807f5468652063616c6c6572206f6620746869732066756e6374696f6e206d75737481526020017f20626520616e2061646d696e000000000000000000000000000000000000000081525060400191505060405180910390fd5b6001600581111561181d57fe5b600060149054906101000a900460ff16600581111561183857fe5b1415156118d3576040517f08c379a000000000000000000000000000000000000000000000000000000000815260040180806020018281038252603f8152602001807f746869732066756e6374696f6e2063616e2062652063616c6c6564206f6e6c7981526020017f20647572696e672043616e6469646174657320726567697374726174696f6e0081525060400191505060405180910390fd5b6002600060146101000a81548160ff021916908360058111156118f257fe5b02179055507fcce7f334689c8645e54db147c4b9c8375fdd925e9d5387c26cb9268dc90bb72460405160405180910390a17f9474022b1c97b70d3479aafe8672c447d1837ad99ae1f735eced168a65252d166001600060149054906101000a900460ff166040518083600581111561196657fe5b60ff16815260200182600581111561197a57fe5b60ff1681526020019250505060405180910390a1565b6000600454905090565b6000600260008373ffffffffffffffffffffffffffffffffffffffff1673ffffffffffffffffffffffffffffffffffffffff16815260200190815260200160002060000160009054906101000a900460ff169050919050565b6060600360008381526020019081526020016000206001018054600181600116156101000203166002900480601f016020809104026020016040519081016040528092919081815260200182805460018160011615610100020316600290048015611a9f5780601f10611a7457610100808354040283529160200191611a9f565b820191906000526020600020905b815481529060010190602001808311611a8257829003601f168201915b50505050509050919050565b6000809054906101000a900473ffffffffffffffffffffffffffffffffffffffff1681565b60008060149054906101000a900460ff16905090565b6000600580811115611af457fe5b600060149054906101000a900460ff166005811115611b0f57fe5b141515611baa576040517f08c379a000000000000000000000000000000000000000000000000000000000815260040180806020018281038252603e8152602001807f746869732066756e6374696f6e2063616e2062652063616c6c6564206f6e6c7981526020017f20616674657220766f7465732068617665206265656e2074616c6c696564000081525060400191505060405180910390fd5b60036000600154815260200190815260200160002060020154905090565b6000809054906101000a900473ffffffffffffffffffffffffffffffffffffffff1673ffffffffffffffffffffffffffffffffffffffff163373ffffffffffffffffffffffffffffffffffffffff16141515611cb2576040517f08c379a000000000000000000000000000000000000000000000000000000000815260040180806020018281038252602c8152602001807f5468652063616c6c6572206f6620746869732066756e6374696f6e206d75737481526020017f20626520616e2061646d696e000000000000000000000000000000000000000081525060400191505060405180910390fd5b60006005811115611cbf57fe5b600060149054906101000a900460ff166005811115611cda57fe5b141515611d9b576040517f08c379a000000000000000000000000000000000000000000000000000000000815260040180806020018281038252604b8152602001807f746869732066756e6374696f6e2063616e2062652063616c6c6564206f6e6c7981526020017f206265666f72652043616e6469646174657320726567697374726174696f6e2081526020017f686173207374617274656400000000000000000000000000000000000000000081525060600191505060405180910390fd5b6001600060146101000a81548160ff02191690836005811115611dba57fe5b02179055507fe01aac20ab8df6ac68a99d01775346a4812a94a94d98812320bfe7cc94aa999b60405160405180910390a17f9474022b1c97b70d3479aafe8672c447d1837ad99ae1f735eced168a65252d1660008060149054906101000a900460ff1660405180836005811115611e2d57fe5b60ff168152602001826005811115611e4157fe5b60ff1681526020019250505060405180910390a1565b828054600181600116156101000203166002900490600052602060002090601f016020900481019282601f10611e9857805160ff1916838001178555611ec6565b82800160010185558215611ec6579182015b82811115611ec5578251825591602001919060010190611eaa565b5b509050611ed39190611ed7565b5090565b611ef991905b80821115611ef5576000816000905550600101611edd565b5090565b905600a165627a7a72305820120c94ed65fbbb4e3f370f828932cfc58c85e1f052ec240da4cf8401abca74d00029",
  "source": "pragma solidity 0.4.25;\r\n\r\ncontract SimpleVoting {\r\n    // Model a Candidate\r\n    struct Candidate {\r\n        uint id;\r\n        string name;\r\n        uint voteCount;\r\n    }\r\n\r\n    struct Voter {\r\n        bool isRegistered;\r\n        bool hasVoted;\r\n        uint votedCandidateId;\r\n    }\r\n\r\n    address public administrator;\r\n\r\n    enum WorkflowStatus {\r\n        RegisteringVoters, \r\n        CandidatesRegistrationStarted,\r\n        CandidatesRegistrationEnded,\r\n        VotingSessionStarted,\r\n        VotingSessionEnded,\r\n        VotesTallied\r\n    }\r\n\r\n    WorkflowStatus public workflowStatus;\r\n\r\n    uint private winningCandidateId;\r\n\r\n    // Store accounts that have voted\r\n    mapping(address => Voter) public voters;\r\n    // Store Candidates\r\n    // Fetch Candidate\r\n    mapping(uint => Candidate) public candidates;\r\n    // Store Candidates Count\r\n    uint public candidatesCount;\r\n\r\n    // // voted event\r\n    // event votedEvent (\r\n    //     uint indexed _candidateId\r\n    // );\r\n\r\n    event VoterRegisteredEvent (address voterAddress); \r\n    event CandidatesRegistrationStartedEvent ();\r\n    event CandidatesRegistrationEndedEvent ();\r\n    event CandidatesRegisteredEvent(uint candidateId);\r\n    event VotingSessionStartedEvent ();\r\n    event VotingSessionEndedEvent ();\r\n    event VotedEvent (address voter, uint candidateId);\r\n    event VotesTalliedEvent ();\r\n\r\n    event WorkflowStatusChangeEvent (\r\n        WorkflowStatus previousStatus,\r\n        WorkflowStatus newStatus\r\n    );\r\n\r\n    constructor () public {\r\n        administrator = msg.sender;\r\n        workflowStatus = WorkflowStatus.RegisteringVoters;\r\n\r\n        // TODO: remove these next two lines and have candidate registration done by admin\r\n        // addCandidate(\"Candidate 1\");\r\n        // addCandidate(\"Candidate 2\");\r\n    }\r\n\r\n    modifier onlyAdministrator(){\r\n        require(msg.sender == administrator, \"The caller of this function must be an admin\");\r\n        _;\r\n    }\r\n    modifier onlyRegisteredVoter() {\r\n        require(voters[msg.sender].isRegistered, \r\n        \"the caller of this function must be a registered voter\");\r\n        _;\r\n    }\r\n\r\n    modifier onlyDuringVotersRegistration() {\r\n        require(workflowStatus == WorkflowStatus.RegisteringVoters,\"this function can be called only before Candidates registration has started\");\r\n        _;\r\n    }\r\n\r\n    modifier onlyDuringCandidatesRegistration() {\r\n        require(workflowStatus == WorkflowStatus.CandidatesRegistrationStarted, \"this function can be called only during Candidates registration\");\r\n        _;\r\n    }\r\n\r\n        modifier onlyAfterCandidatesRegistration() {\r\n        require(workflowStatus == WorkflowStatus.CandidatesRegistrationEnded, \"this function can be called only after Candidates registration has ended\");\r\n       _;\r\n    }\r\n    \r\n    modifier onlyDuringVotingSession() {\r\n        require(workflowStatus == WorkflowStatus.VotingSessionStarted, \"this function can be called only during the voting session\");\r\n       _;\r\n    }\r\n    \r\n    modifier onlyAfterVotingSession() {\r\n        require(workflowStatus == WorkflowStatus.VotingSessionEnded,  \"this function can be called only after the voting session has ended\");\r\n       _;\r\n    }\r\n    \r\n    modifier onlyAfterVotesTallied() {\r\n        require(workflowStatus == WorkflowStatus.VotesTallied,  \r\n           \"this function can be called only after votes have been tallied\");\r\n       _;\r\n    }\r\n\r\n    function registerVoter(address _voterAddress) \r\n        public onlyAdministrator onlyDuringVotersRegistration {\r\n            \r\n        require(!voters[_voterAddress].isRegistered, \"the voter is already registered\");\r\n            \r\n        voters[_voterAddress].isRegistered = true;\r\n        voters[_voterAddress].hasVoted = false;\r\n\r\n        emit VoterRegisteredEvent(_voterAddress);\r\n    }\r\n\r\n    function startCandidatesRegistration() \r\n        public onlyAdministrator onlyDuringVotersRegistration {\r\n        workflowStatus = WorkflowStatus. CandidatesRegistrationStarted;\r\n            \r\n        emit CandidatesRegistrationStartedEvent();\r\n        emit WorkflowStatusChangeEvent(\r\n            WorkflowStatus. RegisteringVoters, workflowStatus);\r\n    }\r\n    \r\n    function endCandidatesRegistration() \r\n        public onlyAdministrator onlyDuringCandidatesRegistration {\r\n        workflowStatus = WorkflowStatus.CandidatesRegistrationEnded;\r\n\r\n        emit CandidatesRegistrationEndedEvent();        \r\n        emit WorkflowStatusChangeEvent(\r\n            WorkflowStatus.CandidatesRegistrationStarted, workflowStatus);\r\n    }\r\n\r\n    function registerCandidate(string candidateName) \r\n        public onlyRegisteredVoter onlyDuringCandidatesRegistration {\r\n        candidatesCount ++;\r\n        candidates[candidatesCount] = (Candidate(candidatesCount, candidateName, 0));\r\n\r\n        emit CandidatesRegisteredEvent(candidatesCount);\r\n    }\r\n\r\n\r\n    // function addCandidate (string _name) private {\r\n    //     candidatesCount ++;\r\n    //     candidates[candidatesCount] = Candidate(candidatesCount, _name, 0);\r\n    // }\r\n\r\n    function vote(uint candidateId) public onlyRegisteredVoter onlyDuringVotingSession  {\r\n        require(!voters[msg.sender].hasVoted, \"the caller has already voted\");\r\n            \r\n        voters[msg.sender].hasVoted = true;\r\n        voters[msg.sender].votedCandidateId = candidateId;\r\n            \r\n        candidates[candidateId].voteCount += 1;\r\n\r\n        emit VotedEvent(msg.sender, candidateId);\r\n    }\r\n\r\n\r\n//     function vote (uint _candidateId) public {\r\n//         // require that they haven't voted before\r\n//         require(!voters[msg.sender]);\r\n// \r\n//         // require a valid candidate\r\n//         require(_candidateId > 0 && _candidateId <= candidatesCount);\r\n// \r\n//         // record that voter has voted\r\n//         voters[msg.sender] = true;\r\n// \r\n//         // update candidate vote Count\r\n//         candidates[_candidateId].voteCount ++;\r\n// \r\n//         // trigger voted event\r\n//         emit votedEvent(_candidateId);\r\n//     }\r\n    function tallyVotes() \r\n        onlyAdministrator \r\n        onlyAfterVotingSession  public {\r\n        uint winningVoteCount = 0;\r\n        uint winningCandidateIndex = 0;\r\n\r\n            \r\n        for (uint i = 0; i < candidatesCount; i++) {\r\n            if (candidates[i].voteCount > winningVoteCount) {\r\n                winningVoteCount = candidates[i].voteCount;\r\n                winningCandidateIndex = i;\r\n            }\r\n        }\r\n            \r\n        winningCandidateId = winningCandidateIndex;\r\n        workflowStatus = WorkflowStatus.VotesTallied;\r\n\r\n        emit VotesTalliedEvent();\r\n        emit WorkflowStatusChangeEvent(\r\n            WorkflowStatus.VotingSessionEnded, workflowStatus);\r\n    }\r\n\r\n    // views\r\n\r\n    function getCandidatesNumber() public view\r\n        returns (uint) {\r\n            return candidatesCount;\r\n    }\r\n\r\n    function getCandidateName(uint index) public view \r\n        returns (string) {\r\n            return candidates[index].name;\r\n    }\r\n\r\n    function getWinningCandidateId() onlyAfterVotesTallied \r\n    public view\r\n        returns (uint) {\r\n        return winningCandidateId;\r\n}\r\n    \r\n    function getWinningCandidateName() onlyAfterVotesTallied \r\n        public view\r\n            returns (string) {\r\n            return candidates[winningCandidateId].name;\r\n    }  \r\n\r\n    function getWinningCandidateVoteCounts() onlyAfterVotesTallied \r\n        public view\r\n            returns (uint) {\r\n            return candidates[winningCandidateId].voteCount;\r\n    }\r\n\r\n    function isRegisteredVoter(address _voterAddress) public view\r\n        returns (bool) {\r\n        return voters[_voterAddress].isRegistered;\r\n    }\r\n\r\n    function isAdministrator(address _address) public view \r\n        returns (bool){\r\n        return _address == administrator;\r\n    }\r\n\r\n    function getWorkflowStatus() public view\r\n    returns (WorkflowStatus) {\r\n    return workflowStatus;       \r\n    }\r\n}\r\n",
  "sourcePath": "C:\\Users\\akatzin\\git\\electionDAPP\\election\\contracts\\SimpleVoting.sol",
  "compiler": {
    "name": "solc",
    "version": "0.4.25+commit.59dbf8f1.Emscripten.clang"
  },
  "schemaVersion": "3.4.4",
  "updatedAt": "2022-01-29T18:30:55.598Z",
  "devdoc": {
    "methods": {}
  },
  "userdoc": {
    "methods": {}
  }
}