{
  "contractName": "SimpleVoting",
  "abi": [
    {
      "constant": true,
      "inputs": [
        {
          "name": "",
          "type": "uint256"
        }
      ],
      "name": "proposals",
      "outputs": [
        {
          "name": "description",
          "type": "string"
        },
        {
          "name": "voteCount",
          "type": "uint256"
        }
      ],
      "payable": false,
      "stateMutability": "view",
      "type": "function"
    },
    {
      "constant": true,
      "inputs": [],
      "name": "workflowStatus",
      "outputs": [
        {
          "name": "",
          "type": "uint8"
        }
      ],
      "payable": false,
      "stateMutability": "view",
      "type": "function"
    },
    {
      "constant": true,
      "inputs": [
        {
          "name": "",
          "type": "address"
        }
      ],
      "name": "voters",
      "outputs": [
        {
          "name": "isRegistered",
          "type": "bool"
        },
        {
          "name": "hasVoted",
          "type": "bool"
        },
        {
          "name": "votedProposalId",
          "type": "uint256"
        }
      ],
      "payable": false,
      "stateMutability": "view",
      "type": "function"
    },
    {
      "constant": true,
      "inputs": [],
      "name": "administrator",
      "outputs": [
        {
          "name": "",
          "type": "address"
        }
      ],
      "payable": false,
      "stateMutability": "view",
      "type": "function"
    },
    {
      "inputs": [],
      "payable": false,
      "stateMutability": "nonpayable",
      "type": "constructor"
    },
    {
      "anonymous": false,
      "inputs": [
        {
          "indexed": false,
          "name": "voterAddress",
          "type": "address"
        }
      ],
      "name": "VoterRegisteredEvent",
      "type": "event"
    },
    {
      "anonymous": false,
      "inputs": [],
      "name": "ProposalsRegistrationStartedEvent",
      "type": "event"
    },
    {
      "anonymous": false,
      "inputs": [],
      "name": "ProposalsRegistrationEndedEvent",
      "type": "event"
    },
    {
      "anonymous": false,
      "inputs": [
        {
          "indexed": false,
          "name": "proposalId",
          "type": "uint256"
        }
      ],
      "name": "ProposalRegisteredEvent",
      "type": "event"
    },
    {
      "anonymous": false,
      "inputs": [],
      "name": "VotingSessionStartedEvent",
      "type": "event"
    },
    {
      "anonymous": false,
      "inputs": [],
      "name": "VotingSessionEndedEvent",
      "type": "event"
    },
    {
      "anonymous": false,
      "inputs": [
        {
          "indexed": false,
          "name": "voter",
          "type": "address"
        },
        {
          "indexed": false,
          "name": "proposalId",
          "type": "uint256"
        }
      ],
      "name": "VotedEvent",
      "type": "event"
    },
    {
      "anonymous": false,
      "inputs": [],
      "name": "VotesTalliedEvent",
      "type": "event"
    },
    {
      "anonymous": false,
      "inputs": [
        {
          "indexed": false,
          "name": "previousStatus",
          "type": "uint8"
        },
        {
          "indexed": false,
          "name": "newStatus",
          "type": "uint8"
        }
      ],
      "name": "WorkflowStatusChangeEvent",
      "type": "event"
    },
    {
      "constant": false,
      "inputs": [
        {
          "name": "_voterAddress",
          "type": "address"
        }
      ],
      "name": "registerVoter",
      "outputs": [],
      "payable": false,
      "stateMutability": "nonpayable",
      "type": "function"
    },
    {
      "constant": false,
      "inputs": [],
      "name": "startProposalsRegistration",
      "outputs": [],
      "payable": false,
      "stateMutability": "nonpayable",
      "type": "function"
    },
    {
      "constant": false,
      "inputs": [],
      "name": "endProposalsRegistration",
      "outputs": [],
      "payable": false,
      "stateMutability": "nonpayable",
      "type": "function"
    },
    {
      "constant": false,
      "inputs": [
        {
          "name": "proposalDescription",
          "type": "string"
        }
      ],
      "name": "registerProposal",
      "outputs": [],
      "payable": false,
      "stateMutability": "nonpayable",
      "type": "function"
    },
    {
      "constant": true,
      "inputs": [],
      "name": "getProposalsNumber",
      "outputs": [
        {
          "name": "",
          "type": "uint256"
        }
      ],
      "payable": false,
      "stateMutability": "view",
      "type": "function"
    },
    {
      "constant": true,
      "inputs": [
        {
          "name": "index",
          "type": "uint256"
        }
      ],
      "name": "getProposalDescription",
      "outputs": [
        {
          "name": "",
          "type": "string"
        }
      ],
      "payable": false,
      "stateMutability": "view",
      "type": "function"
    },
    {
      "constant": false,
      "inputs": [],
      "name": "startVotingSession",
      "outputs": [],
      "payable": false,
      "stateMutability": "nonpayable",
      "type": "function"
    },
    {
      "constant": false,
      "inputs": [],
      "name": "endVotingSession",
      "outputs": [],
      "payable": false,
      "stateMutability": "nonpayable",
      "type": "function"
    },
    {
      "constant": false,
      "inputs": [
        {
          "name": "proposalId",
          "type": "uint256"
        }
      ],
      "name": "vote",
      "outputs": [],
      "payable": false,
      "stateMutability": "nonpayable",
      "type": "function"
    },
    {
      "constant": false,
      "inputs": [],
      "name": "tallyVotes",
      "outputs": [],
      "payable": false,
      "stateMutability": "nonpayable",
      "type": "function"
    },
    {
      "constant": true,
      "inputs": [],
      "name": "getWinningProposalId",
      "outputs": [
        {
          "name": "",
          "type": "uint256"
        }
      ],
      "payable": false,
      "stateMutability": "view",
      "type": "function"
    },
    {
      "constant": true,
      "inputs": [],
      "name": "getWinningProposalDescription",
      "outputs": [
        {
          "name": "",
          "type": "string"
        }
      ],
      "payable": false,
      "stateMutability": "view",
      "type": "function"
    },
    {
      "constant": true,
      "inputs": [],
      "name": "getWinningProposaVoteCounts",
      "outputs": [
        {
          "name": "",
          "type": "uint256"
        }
      ],
      "payable": false,
      "stateMutability": "view",
      "type": "function"
    },
    {
      "constant": true,
      "inputs": [
        {
          "name": "_voterAddress",
          "type": "address"
        }
      ],
      "name": "isRegisteredVoter",
      "outputs": [
        {
          "name": "",
          "type": "bool"
        }
      ],
      "payable": false,
      "stateMutability": "view",
      "type": "function"
    },
    {
      "constant": true,
      "inputs": [
        {
          "name": "_address",
          "type": "address"
        }
      ],
      "name": "isAdministrator",
      "outputs": [
        {
          "name": "",
          "type": "bool"
        }
      ],
      "payable": false,
      "stateMutability": "view",
      "type": "function"
    },
    {
      "constant": true,
      "inputs": [],
      "name": "getWorkflowStatus",
      "outputs": [
        {
          "name": "",
          "type": "uint8"
        }
      ],
      "payable": false,
      "stateMutability": "view",
      "type": "function"
    }
  ],
  "bytecode": "0x608060405234801561001057600080fd5b5033600060016101000a81548173ffffffffffffffffffffffffffffffffffffffff021916908373ffffffffffffffffffffffffffffffffffffffff16021790555060008060006101000a81548160ff0219169083600581111561007057fe5b021790555061249e806100846000396000f300608060405260043610610112576000357c0100000000000000000000000000000000000000000000000000000000900463ffffffff1680630121b93f14610117578063013cf08b146101445780630a2eb301146101f15780632016e3c11461024c578063229acb17146102775780632f95355b1461031d578063378a21781461038657806337d05ddc1461039d57806338db6dd31461042d57806341b1b046146104705780636c2974451461049b578063a1edffa2146104b2578063a3ec138d146104eb578063a7bfab1614610558578063da36cffe1461056f578063e09b8c79146105ca578063e81e977b146105e1578063ee74c6781461060c578063f53d0a8e14610623578063f75d64a61461067a575b600080fd5b34801561012357600080fd5b50610142600480360381019080803590602001909291905050506106b3565b005b34801561015057600080fd5b5061016f60048036038101908080359060200190929190505050610a62565b6040518080602001838152602001828103825284818151815260200191508051906020019080838360005b838110156101b557808201518184015260208101905061019a565b50505050905090810190601f1680156101e25780820380516001836020036101000a031916815260200191505b50935050505060405180910390f35b3480156101fd57600080fd5b50610232600480360381019080803573ffffffffffffffffffffffffffffffffffffffff169060200190929190505050610b2d565b604051808215151515815260200191505060405180910390f35b34801561025857600080fd5b50610261610b86565b6040518082815260200191505060405180910390f35b34801561028357600080fd5b506102a260048036038101908080359060200190929190505050610c71565b6040518080602001828103825283818151815260200191508051906020019080838360005b838110156102e25780820151818401526020810190506102c7565b50505050905090810190601f16801561030f5780820380516001836020036101000a031916815260200191505b509250505060405180910390f35b34801561032957600080fd5b50610384600480360381019080803590602001908201803590602001908080601f0160208091040260200160405190810160405280939291908181526020018383808284378201915050505050509192919290505050610d33565b005b34801561039257600080fd5b5061039b610f8e565b005b3480156103a957600080fd5b506103b26112a0565b6040518080602001828103825283818151815260200191508051906020019080838360005b838110156103f25780820151818401526020810190506103d7565b50505050905090810190601f16801561041f5780820380516001836020036101000a031916815260200191505b509250505060405180910390f35b34801561043957600080fd5b5061046e600480360381019080803573ffffffffffffffffffffffffffffffffffffffff169060200190929190505050611423565b005b34801561047c57600080fd5b5061048561181e565b6040518082815260200191505060405180910390f35b3480156104a757600080fd5b506104b061182b565b005b3480156104be57600080fd5b506104c7611a93565b604051808260058111156104d757fe5b60ff16815260200191505060405180910390f35b3480156104f757600080fd5b5061052c600480360381019080803573ffffffffffffffffffffffffffffffffffffffff169060200190929190505050611aa5565b604051808415151515815260200183151515158152602001828152602001935050505060405180910390f35b34801561056457600080fd5b5061056d611ae9565b005b34801561057b57600080fd5b506105b0600480360381019080803573ffffffffffffffffffffffffffffffffffffffff169060200190929190505050611d51565b604051808215151515815260200191505060405180910390f35b3480156105d657600080fd5b506105df611daa565b005b3480156105ed57600080fd5b506105f6612038565b6040518082815260200191505060405180910390f35b34801561061857600080fd5b50610621612103565b005b34801561062f57600080fd5b50610638612391565b604051808273ffffffffffffffffffffffffffffffffffffffff1673ffffffffffffffffffffffffffffffffffffffff16815260200191505060405180910390f35b34801561068657600080fd5b5061068f6123b7565b6040518082600581111561069f57fe5b60ff16815260200191505060405180910390f35b600160003373ffffffffffffffffffffffffffffffffffffffff1673ffffffffffffffffffffffffffffffffffffffff16815260200190815260200160002060000160009054906101000a900460ff16151561079d576040517f08c379a00000000000000000000000000000000000000000000000000000000081526004018080602001828103825260368152602001807f7468652063616c6c6572206f6620746869732066756e6374696f6e206d75737481526020017f2062652061207265676973746572656420766f7465720000000000000000000081525060400191505060405180910390fd5b600360058111156107aa57fe5b6000809054906101000a900460ff1660058111156107c457fe5b14151561085f576040517f08c379a000000000000000000000000000000000000000000000000000000000815260040180806020018281038252603a8152602001807f746869732066756e6374696f6e2063616e2062652063616c6c6564206f6e6c7981526020017f20647572696e672074686520766f74696e672073657373696f6e00000000000081525060400191505060405180910390fd5b600160003373ffffffffffffffffffffffffffffffffffffffff1673ffffffffffffffffffffffffffffffffffffffff16815260200190815260200160002060000160019054906101000a900460ff16151515610924576040517f08c379a000000000000000000000000000000000000000000000000000000000815260040180806020018281038252601c8152602001807f7468652063616c6c65722068617320616c726561647920766f7465640000000081525060200191505060405180910390fd5b60018060003373ffffffffffffffffffffffffffffffffffffffff1673ffffffffffffffffffffffffffffffffffffffff16815260200190815260200160002060000160016101000a81548160ff02191690831515021790555080600160003373ffffffffffffffffffffffffffffffffffffffff1673ffffffffffffffffffffffffffffffffffffffff1681526020019081526020016000206001018190555060016002828154811015156109d657fe5b9060005260206000209060020201600101600082825401925050819055507f0902475a854b82199b4f5d6b81327ec4c4ec077ce0356a106ddc2748c5285ed33382604051808373ffffffffffffffffffffffffffffffffffffffff1673ffffffffffffffffffffffffffffffffffffffff1681526020018281526020019250505060405180910390a150565b600281815481101515610a7157fe5b9060005260206000209060020201600091509050806000018054600181600116156101000203166002900480601f016020809104026020016040519081016040528092919081815260200182805460018160011615610100020316600290048015610b1d5780601f10610af257610100808354040283529160200191610b1d565b820191906000526020600020905b815481529060010190602001808311610b0057829003601f168201915b5050505050908060010154905082565b60008060019054906101000a900473ffffffffffffffffffffffffffffffffffffffff1673ffffffffffffffffffffffffffffffffffffffff168273ffffffffffffffffffffffffffffffffffffffff16149050919050565b6000600580811115610b9457fe5b6000809054906101000a900460ff166005811115610bae57fe5b141515610c49576040517f08c379a000000000000000000000000000000000000000000000000000000000815260040180806020018281038252603e8152602001807f746869732066756e6374696f6e2063616e2062652063616c6c6564206f6e6c7981526020017f20616674657220766f7465732068617665206265656e2074616c6c696564000081525060400191505060405180910390fd5b6002600354815481101515610c5a57fe5b906000526020600020906002020160010154905090565b6060600282815481101515610c8257fe5b90600052602060002090600202016000018054600181600116156101000203166002900480601f016020809104026020016040519081016040528092919081815260200182805460018160011615610100020316600290048015610d275780601f10610cfc57610100808354040283529160200191610d27565b820191906000526020600020905b815481529060010190602001808311610d0a57829003601f168201915b50505050509050919050565b600160003373ffffffffffffffffffffffffffffffffffffffff1673ffffffffffffffffffffffffffffffffffffffff16815260200190815260200160002060000160009054906101000a900460ff161515610e1d576040517f08c379a00000000000000000000000000000000000000000000000000000000081526004018080602001828103825260368152602001807f7468652063616c6c6572206f6620746869732066756e6374696f6e206d75737481526020017f2062652061207265676973746572656420766f7465720000000000000000000081525060400191505060405180910390fd5b60016005811115610e2a57fe5b6000809054906101000a900460ff166005811115610e4457fe5b141515610edf576040517f08c379a000000000000000000000000000000000000000000000000000000000815260040180806020018281038252603e8152602001807f746869732066756e6374696f6e2063616e2062652063616c6c6564206f6e6c7981526020017f20647572696e672070726f706f73616c7320726567697374726174696f6e000081525060400191505060405180910390fd5b600260408051908101604052808381526020016000815250908060018154018082558091505090600182039060005260206000209060020201600090919290919091506000820151816000019080519060200190610f3e9291906123cd565b50602082015181600101555050507fdcd2e8cd237900037efa515c36a3caa6812766647c16535dd5fc3c6fd641154c6001600280549050036040518082815260200191505060405180910390a150565b60008060008060019054906101000a900473ffffffffffffffffffffffffffffffffffffffff1673ffffffffffffffffffffffffffffffffffffffff163373ffffffffffffffffffffffffffffffffffffffff1614151561107d576040517f08c379a00000000000000000000000000000000000000000000000000000000081526004018080602001828103825260358152602001807f7468652063616c6c6572206f6620746869732066756e6374696f6e206d75737481526020017f206265207468652061646d696e6973747261746f72000000000000000000000081525060400191505060405180910390fd5b6004600581111561108a57fe5b6000809054906101000a900460ff1660058111156110a457fe5b141515611165576040517f08c379a00000000000000000000000000000000000000000000000000000000081526004018080602001828103825260438152602001807f746869732066756e6374696f6e2063616e2062652063616c6c6564206f6e6c7981526020017f2061667465722074686520766f74696e672073657373696f6e2068617320656e81526020017f646564000000000000000000000000000000000000000000000000000000000081525060600191505060405180910390fd5b6000925060009150600090505b6002805490508110156111db578260028281548110151561118f57fe5b90600052602060002090600202016001015411156111ce576002818154811015156111b657fe5b90600052602060002090600202016001015492508091505b8080600101915050611172565b8160038190555060056000806101000a81548160ff0219169083600581111561120057fe5b02179055507fa1f82a14ea162408785ef8969f7cf08b2bb72b081f8d4e2eda49846e52f439c660405160405180910390a17f9474022b1c97b70d3479aafe8672c447d1837ad99ae1f735eced168a65252d1660046000809054906101000a900460ff166040518083600581111561127357fe5b60ff16815260200182600581111561128757fe5b60ff1681526020019250505060405180910390a1505050565b60606005808111156112ae57fe5b6000809054906101000a900460ff1660058111156112c857fe5b141515611363576040517f08c379a000000000000000000000000000000000000000000000000000000000815260040180806020018281038252603e8152602001807f746869732066756e6374696f6e2063616e2062652063616c6c6564206f6e6c7981526020017f20616674657220766f7465732068617665206265656e2074616c6c696564000081525060400191505060405180910390fd5b600260035481548110151561137457fe5b90600052602060002090600202016000018054600181600116156101000203166002900480601f0160208091040260200160405190810160405280929190818152602001828054600181600116156101000203166002900480156114195780601f106113ee57610100808354040283529160200191611419565b820191906000526020600020905b8154815290600101906020018083116113fc57829003601f168201915b5050505050905090565b600060019054906101000a900473ffffffffffffffffffffffffffffffffffffffff1673ffffffffffffffffffffffffffffffffffffffff163373ffffffffffffffffffffffffffffffffffffffff1614151561150e576040517f08c379a00000000000000000000000000000000000000000000000000000000081526004018080602001828103825260358152602001807f7468652063616c6c6572206f6620746869732066756e6374696f6e206d75737481526020017f206265207468652061646d696e6973747261746f72000000000000000000000081525060400191505060405180910390fd5b6000600581111561151b57fe5b6000809054906101000a900460ff16600581111561153557fe5b1415156115f6576040517f08c379a000000000000000000000000000000000000000000000000000000000815260040180806020018281038252604a8152602001807f746869732066756e6374696f6e2063616e2062652063616c6c6564206f6e6c7981526020017f206265666f72652070726f706f73616c7320726567697374726174696f6e206881526020017f617320737461727465640000000000000000000000000000000000000000000081525060600191505060405180910390fd5b600160008273ffffffffffffffffffffffffffffffffffffffff1673ffffffffffffffffffffffffffffffffffffffff16815260200190815260200160002060000160009054906101000a900460ff161515156116bb576040517f08c379a000000000000000000000000000000000000000000000000000000000815260040180806020018281038252601f8152602001807f74686520766f74657220697320616c726561647920726567697374657265640081525060200191505060405180910390fd5b60018060008373ffffffffffffffffffffffffffffffffffffffff1673ffffffffffffffffffffffffffffffffffffffff16815260200190815260200160002060000160006101000a81548160ff0219169083151502179055506000600160008373ffffffffffffffffffffffffffffffffffffffff1673ffffffffffffffffffffffffffffffffffffffff16815260200190815260200160002060000160016101000a81548160ff0219169083151502179055506000600160008373ffffffffffffffffffffffffffffffffffffffff1673ffffffffffffffffffffffffffffffffffffffff168152602001908152602001600020600101819055507f42b360c89ba65a59ac7fec024a7bbb2c21d84b5abe5b5178ba0d7e34653a813081604051808273ffffffffffffffffffffffffffffffffffffffff1673ffffffffffffffffffffffffffffffffffffffff16815260200191505060405180910390a150565b6000600280549050905090565b600060019054906101000a900473ffffffffffffffffffffffffffffffffffffffff1673ffffffffffffffffffffffffffffffffffffffff163373ffffffffffffffffffffffffffffffffffffffff16141515611916576040517f08c379a00000000000000000000000000000000000000000000000000000000081526004018080602001828103825260358152602001807f7468652063616c6c6572206f6620746869732066756e6374696f6e206d75737481526020017f206265207468652061646d696e6973747261746f72000000000000000000000081525060400191505060405180910390fd5b6001600581111561192357fe5b6000809054906101000a900460ff16600581111561193d57fe5b1415156119d8576040517f08c379a000000000000000000000000000000000000000000000000000000000815260040180806020018281038252603e8152602001807f746869732066756e6374696f6e2063616e2062652063616c6c6564206f6e6c7981526020017f20647572696e672070726f706f73616c7320726567697374726174696f6e000081525060400191505060405180910390fd5b60026000806101000a81548160ff021916908360058111156119f657fe5b02179055507ff629233eb3546085ffcbbb79c947a38b98b14a6915bcc004a0c1a34ae38c29d860405160405180910390a17f9474022b1c97b70d3479aafe8672c447d1837ad99ae1f735eced168a65252d1660016000809054906101000a900460ff1660405180836005811115611a6957fe5b60ff168152602001826005811115611a7d57fe5b60ff1681526020019250505060405180910390a1565b6000809054906101000a900460ff1681565b60016020528060005260406000206000915090508060000160009054906101000a900460ff16908060000160019054906101000a900460ff16908060010154905083565b600060019054906101000a900473ffffffffffffffffffffffffffffffffffffffff1673ffffffffffffffffffffffffffffffffffffffff163373ffffffffffffffffffffffffffffffffffffffff16141515611bd4576040517f08c379a00000000000000000000000000000000000000000000000000000000081526004018080602001828103825260358152602001807f7468652063616c6c6572206f6620746869732066756e6374696f6e206d75737481526020017f206265207468652061646d696e6973747261746f72000000000000000000000081525060400191505060405180910390fd5b60036005811115611be157fe5b6000809054906101000a900460ff166005811115611bfb57fe5b141515611c96576040517f08c379a000000000000000000000000000000000000000000000000000000000815260040180806020018281038252603a8152602001807f746869732066756e6374696f6e2063616e2062652063616c6c6564206f6e6c7981526020017f20647572696e672074686520766f74696e672073657373696f6e00000000000081525060400191505060405180910390fd5b60046000806101000a81548160ff02191690836005811115611cb457fe5b02179055507f86a7e3ed2917a2b5f100160b6e558c8e7ae6e4fb8f2673d860d3f11b4f345e7260405160405180910390a17f9474022b1c97b70d3479aafe8672c447d1837ad99ae1f735eced168a65252d1660036000809054906101000a900460ff1660405180836005811115611d2757fe5b60ff168152602001826005811115611d3b57fe5b60ff1681526020019250505060405180910390a1565b6000600160008373ffffffffffffffffffffffffffffffffffffffff1673ffffffffffffffffffffffffffffffffffffffff16815260200190815260200160002060000160009054906101000a900460ff169050919050565b600060019054906101000a900473ffffffffffffffffffffffffffffffffffffffff1673ffffffffffffffffffffffffffffffffffffffff163373ffffffffffffffffffffffffffffffffffffffff16141515611e95576040517f08c379a00000000000000000000000000000000000000000000000000000000081526004018080602001828103825260358152602001807f7468652063616c6c6572206f6620746869732066756e6374696f6e206d75737481526020017f206265207468652061646d696e6973747261746f72000000000000000000000081525060400191505060405180910390fd5b60006005811115611ea257fe5b6000809054906101000a900460ff166005811115611ebc57fe5b141515611f7d576040517f08c379a000000000000000000000000000000000000000000000000000000000815260040180806020018281038252604a8152602001807f746869732066756e6374696f6e2063616e2062652063616c6c6564206f6e6c7981526020017f206265666f72652070726f706f73616c7320726567697374726174696f6e206881526020017f617320737461727465640000000000000000000000000000000000000000000081525060600191505060405180910390fd5b60016000806101000a81548160ff02191690836005811115611f9b57fe5b02179055507f65b51a6e225dbda234ac3ca54831842456809aa60205dd84e758670106b4a6f360405160405180910390a17f9474022b1c97b70d3479aafe8672c447d1837ad99ae1f735eced168a65252d1660008060009054906101000a900460ff166040518083600581111561200e57fe5b60ff16815260200182600581111561202257fe5b60ff1681526020019250505060405180910390a1565b600060058081111561204657fe5b6000809054906101000a900460ff16600581111561206057fe5b1415156120fb576040517f08c379a000000000000000000000000000000000000000000000000000000000815260040180806020018281038252603e8152602001807f746869732066756e6374696f6e2063616e2062652063616c6c6564206f6e6c7981526020017f20616674657220766f7465732068617665206265656e2074616c6c696564000081525060400191505060405180910390fd5b600354905090565b600060019054906101000a900473ffffffffffffffffffffffffffffffffffffffff1673ffffffffffffffffffffffffffffffffffffffff163373ffffffffffffffffffffffffffffffffffffffff161415156121ee576040517f08c379a00000000000000000000000000000000000000000000000000000000081526004018080602001828103825260358152602001807f7468652063616c6c6572206f6620746869732066756e6374696f6e206d75737481526020017f206265207468652061646d696e6973747261746f72000000000000000000000081525060400191505060405180910390fd5b600260058111156121fb57fe5b6000809054906101000a900460ff16600581111561221557fe5b1415156122d6576040517f08c379a00000000000000000000000000000000000000000000000000000000081526004018080602001828103825260478152602001807f746869732066756e6374696f6e2063616e2062652063616c6c6564206f6e6c7981526020017f2061667465722070726f706f73616c7320726567697374726174696f6e20686181526020017f7320656e6465640000000000000000000000000000000000000000000000000081525060600191505060405180910390fd5b60036000806101000a81548160ff021916908360058111156122f457fe5b02179055507ffca8377aff3a08252b769c58e6769a534922eabaaf9952691ea9cfcaed41fbd860405160405180910390a17f9474022b1c97b70d3479aafe8672c447d1837ad99ae1f735eced168a65252d1660026000809054906101000a900460ff166040518083600581111561236757fe5b60ff16815260200182600581111561237b57fe5b60ff1681526020019250505060405180910390a1565b600060019054906101000a900473ffffffffffffffffffffffffffffffffffffffff1681565b60008060009054906101000a900460ff16905090565b828054600181600116156101000203166002900490600052602060002090601f016020900481019282601f1061240e57805160ff191683800117855561243c565b8280016001018555821561243c579182015b8281111561243b578251825591602001919060010190612420565b5b509050612449919061244d565b5090565b61246f91905b8082111561246b576000816000905550600101612453565b5090565b905600a165627a7a72305820c673e11e78e2350e5d7ababcc9a41f29da01dde13f40bf8ca11ac97718e1e6e10029",
  "source": "pragma solidity ^0.4.22;\r\n\r\ncontract SimpleVoting {\r\n    \r\n    struct Voter {\r\n        bool isRegistered;\r\n        bool hasVoted;  \r\n        uint votedProposalId;   \r\n    }\r\n    \r\n    struct Proposal {\r\n        string description;   \r\n        uint voteCount; \r\n    }\r\n    \r\n    enum WorkflowStatus {\r\n        RegisteringVoters, \r\n        ProposalsRegistrationStarted,\r\n        ProposalsRegistrationEnded,\r\n        VotingSessionStarted,\r\n        VotingSessionEnded,\r\n        VotesTallied\r\n    }\r\n    \r\n    WorkflowStatus public workflowStatus;\r\n    address public administrator;\r\n    mapping(address => Voter) public voters;\r\n    Proposal[] public proposals;\r\n    uint private winningProposalId;\r\n    \r\n    modifier onlyAdministrator() {\r\n       require(msg.sender == administrator, \"the caller of this function must be the administrator\");\r\n       _;\r\n    }\r\n    \r\n    modifier onlyRegisteredVoter() {\r\n        require(voters[msg.sender].isRegistered, \r\n           \"the caller of this function must be a registered voter\");\r\n       _;\r\n    }\r\n    \r\n    modifier onlyDuringVotersRegistration() {\r\n        require(workflowStatus == WorkflowStatus.RegisteringVoters, \r\n           \"this function can be called only before proposals registration has started\");\r\n       _;\r\n    }\r\n    \r\n    modifier onlyDuringProposalsRegistration() {\r\n        require(workflowStatus == WorkflowStatus.ProposalsRegistrationStarted, \r\n           \"this function can be called only during proposals registration\");\r\n       _;\r\n    }\r\n    \r\n    modifier onlyAfterProposalsRegistration() {\r\n        require(workflowStatus == WorkflowStatus.ProposalsRegistrationEnded,  \r\n           \"this function can be called only after proposals registration has ended\");\r\n       _;\r\n    }\r\n    \r\n    modifier onlyDuringVotingSession() {\r\n        require(workflowStatus == WorkflowStatus.VotingSessionStarted, \r\n           \"this function can be called only during the voting session\");\r\n       _;\r\n    }\r\n    \r\n    modifier onlyAfterVotingSession() {\r\n        require(workflowStatus == WorkflowStatus.VotingSessionEnded,  \r\n           \"this function can be called only after the voting session has ended\");\r\n       _;\r\n    }\r\n    \r\n    modifier onlyAfterVotesTallied() {\r\n        require(workflowStatus == WorkflowStatus.VotesTallied,  \r\n           \"this function can be called only after votes have been tallied\");\r\n       _;\r\n    }\r\n    \r\n\tevent VoterRegisteredEvent (\r\n\t\taddress voterAddress\r\n\t); \r\n\t\r\n\tevent ProposalsRegistrationStartedEvent ();\r\n\t\r\n\tevent ProposalsRegistrationEndedEvent ();\r\n\t\r\n\tevent ProposalRegisteredEvent(\r\n\t    uint proposalId\r\n\t);\r\n\t\r\n\tevent VotingSessionStartedEvent ();\r\n\t\r\n\tevent VotingSessionEndedEvent ();\r\n\t\r\n\tevent VotedEvent (\r\n\t    address voter,\r\n\t    uint proposalId\r\n\t);\r\n\t\r\n\tevent VotesTalliedEvent ();\r\n\t\r\n\tevent WorkflowStatusChangeEvent (\r\n        WorkflowStatus previousStatus,\r\n        WorkflowStatus newStatus\r\n    );\r\n    \r\n    constructor() public {\r\n        administrator = msg.sender;\r\n        workflowStatus = WorkflowStatus.RegisteringVoters;\r\n    }\r\n    \r\n    function registerVoter(address _voterAddress) \r\n        public onlyAdministrator onlyDuringVotersRegistration {\r\n        \r\n        require(!voters[_voterAddress].isRegistered, \"the voter is already registered\");\r\n        \r\n        voters[_voterAddress].isRegistered = true;\r\n        voters[_voterAddress].hasVoted = false;\r\n        voters[_voterAddress].votedProposalId = 0;\r\n        \r\n        emit VoterRegisteredEvent(_voterAddress);\r\n    }\r\n    \r\n    function startProposalsRegistration() \r\n        public onlyAdministrator onlyDuringVotersRegistration {\r\n        workflowStatus = WorkflowStatus.ProposalsRegistrationStarted;\r\n        \r\n        emit ProposalsRegistrationStartedEvent();\r\n        emit WorkflowStatusChangeEvent(\r\n            WorkflowStatus.RegisteringVoters, workflowStatus);\r\n    }\r\n    \r\n    function endProposalsRegistration() \r\n        public onlyAdministrator onlyDuringProposalsRegistration {\r\n        workflowStatus = WorkflowStatus.ProposalsRegistrationEnded;\r\n        \r\n        emit ProposalsRegistrationEndedEvent();\r\n        emit WorkflowStatusChangeEvent(\r\n            WorkflowStatus.ProposalsRegistrationStarted, workflowStatus);\r\n    }\r\n    \r\n    function registerProposal(string proposalDescription) \r\n        public onlyRegisteredVoter onlyDuringProposalsRegistration {\r\n        proposals.push(Proposal({\r\n            description: proposalDescription,\r\n            voteCount: 0\r\n        }));\r\n        \r\n        emit ProposalRegisteredEvent(proposals.length - 1);\r\n    }\r\n    \r\n\tfunction getProposalsNumber() public view\r\n\t    returns (uint) {\r\n\t    return proposals.length;\r\n\t}\r\n\t\r\n\tfunction getProposalDescription(uint index) public view \r\n\t    returns (string) {\r\n\t    return proposals[index].description;\r\n\t}    \r\n\r\n    function startVotingSession() \r\n        public onlyAdministrator onlyAfterProposalsRegistration {\r\n        workflowStatus = WorkflowStatus.VotingSessionStarted;\r\n        \r\n        emit VotingSessionStartedEvent();\r\n        emit WorkflowStatusChangeEvent(\r\n            WorkflowStatus.ProposalsRegistrationEnded, workflowStatus);\r\n    }\r\n    \r\n    function endVotingSession() \r\n        public onlyAdministrator onlyDuringVotingSession {\r\n        workflowStatus = WorkflowStatus.VotingSessionEnded;\r\n        \r\n        emit VotingSessionEndedEvent();\r\n        emit WorkflowStatusChangeEvent(\r\n            WorkflowStatus.VotingSessionStarted, workflowStatus);        \r\n    }\r\n    \r\n    function vote(uint proposalId) onlyRegisteredVoter onlyDuringVotingSession public {\r\n        require(!voters[msg.sender].hasVoted, \"the caller has already voted\");\r\n        \r\n        voters[msg.sender].hasVoted = true;\r\n        voters[msg.sender].votedProposalId = proposalId;\r\n        \r\n        proposals[proposalId].voteCount += 1;\r\n        \r\n        emit VotedEvent(msg.sender, proposalId);\r\n    }\r\n    \r\n    function tallyVotes() onlyAdministrator onlyAfterVotingSession public {\r\n        uint winningVoteCount = 0;\r\n        uint winningProposalIndex = 0;\r\n        \r\n        for (uint i = 0; i < proposals.length; i++) {\r\n            if (proposals[i].voteCount > winningVoteCount) {\r\n                winningVoteCount = proposals[i].voteCount;\r\n                winningProposalIndex = i;\r\n            }\r\n        }\r\n        \r\n        winningProposalId = winningProposalIndex;\r\n        workflowStatus = WorkflowStatus.VotesTallied;\r\n        \r\n        emit VotesTalliedEvent();\r\n        emit WorkflowStatusChangeEvent(\r\n            WorkflowStatus.VotingSessionEnded, workflowStatus);     \r\n    }\r\n    \r\n    function getWinningProposalId() onlyAfterVotesTallied public view\r\n       returns (uint) {\r\n        return winningProposalId;\r\n    }\r\n    \r\n    function getWinningProposalDescription() onlyAfterVotesTallied public view\r\n       returns (string) {\r\n        return proposals[winningProposalId].description;\r\n    }  \r\n    \r\n    function getWinningProposaVoteCounts() onlyAfterVotesTallied public view\r\n       returns (uint) {\r\n        return proposals[winningProposalId].voteCount;\r\n    }   \r\n    \r\n    function isRegisteredVoter(address _voterAddress) public view\r\n\t   returns (bool) {\r\n\t   return voters[_voterAddress].isRegistered;\r\n\t}\r\n\t\r\n\tfunction isAdministrator(address _address) public view \r\n\t    returns (bool) {\r\n\t    return _address == administrator;\r\n\t}\t\r\n\t\r\n\tfunction getWorkflowStatus() public view\r\n\t    returns (WorkflowStatus) {\r\n\t    return workflowStatus;       \r\n\t}\r\n}",
  "sourcePath": "C:\\Ethereum\\truffle\\SimpleVoting\\contracts\\SimpleVoting.sol",
  "compiler": {
    "name": "solc",
    "version": "0.4.23+commit.124ca40d.Emscripten.clang"
  },
  "schemaVersion": "2.0.0",
  "updatedAt": "2018-05-28T20:18:51.158Z"
}